{
  "contractName": "Voting",
  "abi": [
    {
      "inputs": [],
      "stateMutability": "nonpayable",
      "type": "constructor"
    },
    {
      "anonymous": false,
      "inputs": [
        {
          "indexed": true,
          "internalType": "address",
          "name": "previousOwner",
          "type": "address"
        },
        {
          "indexed": true,
          "internalType": "address",
          "name": "newOwner",
          "type": "address"
        }
      ],
      "name": "OwnershipTransferred",
      "type": "event"
    },
    {
      "anonymous": false,
      "inputs": [
        {
          "indexed": false,
          "internalType": "uint256",
          "name": "proposalId",
          "type": "uint256"
        },
        {
          "indexed": false,
          "internalType": "uint256",
          "name": "sessionId",
          "type": "uint256"
        }
      ],
      "name": "ProposalRegistered",
      "type": "event"
    },
    {
      "anonymous": false,
      "inputs": [
        {
          "indexed": false,
          "internalType": "uint256",
          "name": "proposalId",
          "type": "uint256"
        },
        {
          "indexed": false,
          "internalType": "uint256",
          "name": "sessionId",
          "type": "uint256"
        }
      ],
      "name": "ProposalUnRegistered",
      "type": "event"
    },
    {
      "anonymous": false,
      "inputs": [
        {
          "indexed": false,
          "internalType": "uint256",
          "name": "sessionId",
          "type": "uint256"
        }
      ],
      "name": "ProposalsRegistrationEnded",
      "type": "event"
    },
    {
      "anonymous": false,
      "inputs": [
        {
          "indexed": false,
          "internalType": "uint256",
          "name": "sessionId",
          "type": "uint256"
        }
      ],
      "name": "ProposalsRegistrationStarted",
      "type": "event"
    },
    {
      "anonymous": false,
      "inputs": [
        {
          "indexed": false,
          "internalType": "uint256",
          "name": "sessionId",
          "type": "uint256"
        }
      ],
      "name": "SessionRestart",
      "type": "event"
    },
    {
      "anonymous": false,
      "inputs": [
        {
          "indexed": false,
          "internalType": "address",
          "name": "voter",
          "type": "address"
        },
        {
          "indexed": false,
          "internalType": "uint256",
          "name": "proposalId",
          "type": "uint256"
        },
        {
          "indexed": false,
          "internalType": "uint256",
          "name": "sessionId",
          "type": "uint256"
        }
      ],
      "name": "Voted",
      "type": "event"
    },
    {
      "anonymous": false,
      "inputs": [
        {
          "indexed": false,
          "internalType": "address",
          "name": "voterAddress",
          "type": "address"
        },
        {
          "indexed": false,
          "internalType": "uint256",
          "name": "sessionId",
          "type": "uint256"
        }
      ],
      "name": "VoterRegistered",
      "type": "event"
    },
    {
      "anonymous": false,
      "inputs": [
        {
          "indexed": false,
          "internalType": "address",
          "name": "voterAddress",
          "type": "address"
        },
        {
          "indexed": false,
          "internalType": "uint256",
          "name": "sessionId",
          "type": "uint256"
        }
      ],
      "name": "VoterUnRegistered",
      "type": "event"
    },
    {
      "anonymous": false,
      "inputs": [
        {
          "indexed": false,
          "internalType": "uint256",
          "name": "sessionId",
          "type": "uint256"
        }
      ],
      "name": "VotesTallied",
      "type": "event"
    },
    {
      "anonymous": false,
      "inputs": [
        {
          "indexed": false,
          "internalType": "uint256",
          "name": "sessionId",
          "type": "uint256"
        }
      ],
      "name": "VotingSessionEnded",
      "type": "event"
    },
    {
      "anonymous": false,
      "inputs": [
        {
          "indexed": false,
          "internalType": "uint256",
          "name": "sessionId",
          "type": "uint256"
        }
      ],
      "name": "VotingSessionStarted",
      "type": "event"
    },
    {
      "anonymous": false,
      "inputs": [
        {
          "indexed": false,
          "internalType": "enum Voting.WorkflowStatus",
          "name": "previousStatus",
          "type": "uint8"
        },
        {
          "indexed": false,
          "internalType": "enum Voting.WorkflowStatus",
          "name": "newStatus",
          "type": "uint8"
        },
        {
          "indexed": false,
          "internalType": "uint256",
          "name": "sessionId",
          "type": "uint256"
        }
      ],
      "name": "WorkflowStatusChange",
      "type": "event"
    },
    {
      "inputs": [
        {
          "internalType": "uint256",
          "name": "",
          "type": "uint256"
        }
      ],
      "name": "addressToSave",
      "outputs": [
        {
          "internalType": "address",
          "name": "",
          "type": "address"
        }
      ],
      "stateMutability": "view",
      "type": "function"
    },
    {
      "inputs": [],
      "name": "currentStatus",
      "outputs": [
        {
          "internalType": "enum Voting.WorkflowStatus",
          "name": "",
          "type": "uint8"
        }
      ],
      "stateMutability": "view",
      "type": "function"
    },
    {
      "inputs": [],
      "name": "owner",
      "outputs": [
        {
          "internalType": "address",
          "name": "",
          "type": "address"
        }
      ],
      "stateMutability": "view",
      "type": "function"
    },
    {
      "inputs": [
        {
          "internalType": "uint256",
          "name": "",
          "type": "uint256"
        }
      ],
      "name": "proposals",
      "outputs": [
        {
          "internalType": "string",
          "name": "description",
          "type": "string"
        },
        {
          "internalType": "uint16",
          "name": "voteCount",
          "type": "uint16"
        },
        {
          "internalType": "address",
          "name": "author",
          "type": "address"
        },
        {
          "internalType": "bool",
          "name": "isActive",
          "type": "bool"
        }
      ],
      "stateMutability": "view",
      "type": "function"
    },
    {
      "inputs": [],
      "name": "renounceOwnership",
      "outputs": [],
      "stateMutability": "nonpayable",
      "type": "function"
    },
    {
      "inputs": [],
      "name": "sessionId",
      "outputs": [
        {
          "internalType": "uint16",
          "name": "",
          "type": "uint16"
        }
      ],
      "stateMutability": "view",
      "type": "function"
    },
    {
      "inputs": [
        {
          "internalType": "uint256",
          "name": "",
          "type": "uint256"
        }
      ],
      "name": "sessions",
      "outputs": [
        {
          "internalType": "uint256",
          "name": "startTimeSession",
          "type": "uint256"
        },
        {
          "internalType": "uint256",
          "name": "endTimeSession",
          "type": "uint256"
        },
        {
          "internalType": "string",
          "name": "winningProposalName",
          "type": "string"
        },
        {
          "internalType": "address",
          "name": "proposer",
          "type": "address"
        },
        {
          "internalType": "uint16",
          "name": "nbVotes",
          "type": "uint16"
        },
        {
          "internalType": "uint16",
          "name": "totalVotes",
          "type": "uint16"
        }
      ],
      "stateMutability": "view",
      "type": "function"
    },
    {
      "inputs": [
        {
          "internalType": "address",
          "name": "newOwner",
          "type": "address"
        }
      ],
      "name": "transferOwnership",
      "outputs": [],
      "stateMutability": "nonpayable",
      "type": "function"
    },
    {
      "inputs": [
        {
          "internalType": "address",
          "name": "",
          "type": "address"
        }
      ],
      "name": "voters",
      "outputs": [
        {
          "internalType": "bool",
          "name": "isRegistered",
          "type": "bool"
        },
        {
          "internalType": "bool",
          "name": "hasVoted",
          "type": "bool"
        },
        {
          "internalType": "uint16",
          "name": "votedProposalId",
          "type": "uint16"
        },
        {
          "internalType": "bool",
          "name": "isAbleToPropose",
          "type": "bool"
        },
        {
          "internalType": "bool",
          "name": "hasProposed",
          "type": "bool"
        }
      ],
      "stateMutability": "view",
      "type": "function"
    },
    {
      "inputs": [
        {
          "internalType": "uint8",
          "name": "newStatus",
          "type": "uint8"
        }
      ],
      "name": "adminChangeStatus",
      "outputs": [],
      "stateMutability": "nonpayable",
      "type": "function"
    },
    {
      "inputs": [
        {
          "internalType": "address",
          "name": "_addressVoter",
          "type": "address"
        },
        {
          "internalType": "bool",
          "name": "_isAbleToPropose",
          "type": "bool"
        }
      ],
      "name": "addVoter",
      "outputs": [],
      "stateMutability": "nonpayable",
      "type": "function"
    },
    {
      "inputs": [
        {
          "internalType": "address",
          "name": "_addressVoter",
          "type": "address"
        }
      ],
      "name": "removedVoter",
      "outputs": [],
      "stateMutability": "nonpayable",
      "type": "function"
    },
    {
      "inputs": [],
      "name": "proposalSessionBegin",
      "outputs": [],
      "stateMutability": "nonpayable",
      "type": "function"
    },
    {
      "inputs": [
        {
          "internalType": "string",
          "name": "_content",
          "type": "string"
        }
      ],
      "name": "addProposal",
      "outputs": [],
      "stateMutability": "nonpayable",
      "type": "function"
    },
    {
      "inputs": [],
      "name": "proposalSessionEnded",
      "outputs": [],
      "stateMutability": "nonpayable",
      "type": "function"
    },
    {
      "inputs": [
        {
          "internalType": "uint16",
          "name": "_proposalId",
          "type": "uint16"
        }
      ],
      "name": "removeProposal",
      "outputs": [],
      "stateMutability": "nonpayable",
      "type": "function"
    },
    {
      "inputs": [],
      "name": "votingSessionStarted",
      "outputs": [],
      "stateMutability": "nonpayable",
      "type": "function"
    },
    {
      "inputs": [
        {
          "internalType": "uint16",
          "name": "_votedProposalId",
          "type": "uint16"
        }
      ],
      "name": "addVote",
      "outputs": [],
      "stateMutability": "nonpayable",
      "type": "function"
    },
    {
      "inputs": [],
      "name": "votingSessionEnded",
      "outputs": [],
      "stateMutability": "nonpayable",
      "type": "function"
    },
    {
      "inputs": [],
      "name": "votesTallied",
      "outputs": [],
      "stateMutability": "nonpayable",
      "type": "function"
    },
    {
      "inputs": [],
      "name": "getWinningProposal",
      "outputs": [
        {
          "internalType": "string",
          "name": "contentProposal",
          "type": "string"
        },
        {
          "internalType": "uint16",
          "name": "nbVotes",
          "type": "uint16"
        },
        {
          "internalType": "uint16",
          "name": "nbVotesTotal",
          "type": "uint16"
        }
      ],
      "stateMutability": "view",
      "type": "function"
    },
    {
      "inputs": [
        {
          "internalType": "bool",
          "name": "deleteVoters",
          "type": "bool"
        }
      ],
      "name": "restartSession",
      "outputs": [],
      "stateMutability": "nonpayable",
      "type": "function"
    }
  ],
  "bytecode": "0x60806040523480156200001157600080fd5b50600062000024620003c860201b60201c565b9050806000806101000a81548173ffffffffffffffffffffffffffffffffffffffff021916908373ffffffffffffffffffffffffffffffffffffffff1602179055508073ffffffffffffffffffffffffffffffffffffffff16600073ffffffffffffffffffffffffffffffffffffffff167f8be0079c531659141344cd1fd0a4f28419497f9722a3daafe3b4186f6b6457e060405160405180910390a3506000600560026101000a81548161ffff021916908361ffff16021790555060036040518060c0016040528060008152602001600081526020016040518060400160405280600281526020017f4e430000000000000000000000000000000000000000000000000000000000008152508152602001600073ffffffffffffffffffffffffffffffffffffffff168152602001600061ffff168152602001600061ffff16815250908060018154018082558091505060019003906000526020600020906004020160009091909190915060008201518160000155602082015181600101556040820151816002019080519060200190620001c2929190620003d0565b5060608201518160030160006101000a81548173ffffffffffffffffffffffffffffffffffffffff021916908373ffffffffffffffffffffffffffffffffffffffff16021790555060808201518160030160146101000a81548161ffff021916908361ffff16021790555060a08201518160030160166101000a81548161ffff021916908361ffff16021790555050506000600560046101000a81548160ff021916908360058111156200027257fe5b0217905550600260405180608001604052806040518060400160405280600a81526020017f426c616e6b20566f7465000000000000000000000000000000000000000000008152508152602001600061ffff168152602001600073ffffffffffffffffffffffffffffffffffffffff168152602001600115158152509080600181540180825580915050600190039060005260206000209060020201600090919091909150600082015181600001908051906020019062000335929190620003d0565b5060208201518160010160006101000a81548161ffff021916908361ffff16021790555060408201518160010160026101000a81548173ffffffffffffffffffffffffffffffffffffffff021916908373ffffffffffffffffffffffffffffffffffffffff16021790555060608201518160010160166101000a81548160ff021916908315150217905550505062000486565b600033905090565b828054600181600116156101000203166002900490600052602060002090601f01602090048101928262000408576000855562000454565b82601f106200042357805160ff191683800117855562000454565b8280016001018555821562000454579182015b828111156200045357825182559160200191906001019062000436565b5b50905062000463919062000467565b5090565b5b808211156200048257600081600090555060010162000468565b5090565b613a0f80620004966000396000f3fe608060405234801561001057600080fd5b50600436106101425760003560e01c80638da5cb5b116100b8578063a878b4681161007c578063a878b46814610689578063ada7415f146106d9578063c4f350f3146106e3578063cbf837ea14610714578063ef8a92351461071e578063f2fde38b1461074757610142565b80638da5cb5b146105105780639648c9f414610544578063a1f16d2514610566578063a3ec138d14610570578063a5134620146105f057610142565b806354c74c471161010a57806354c74c47146103a85780635ac70e54146103b2578063715018a6146103bc578063813a9ee4146103c657806383c4b7a3146103f6578063863b85bf146104de57610142565b8063013cf08b146101475780632b474cbe1461021f5780632fdae3c5146102775780634225083a146103325780634bb3a0e914610376575b600080fd5b6101736004803603602081101561015d57600080fd5b810190808035906020019092919050505061078b565b60405180806020018561ffff1681526020018473ffffffffffffffffffffffffffffffffffffffff1681526020018315158152602001828103825286818151815260200191508051906020019080838360005b838110156101e15780820151818401526020810190506101c6565b50505050905090810190601f16801561020e5780820380516001836020036101000a031916815260200191505b509550505050505060405180910390f35b61024b6004803603602081101561023557600080fd5b810190808035906020019092919050505061089e565b604051808273ffffffffffffffffffffffffffffffffffffffff16815260200191505060405180910390f35b6103306004803603602081101561028d57600080fd5b81019080803590602001906401000000008111156102aa57600080fd5b8201836020820111156102bc57600080fd5b803590602001918460018302840111640100000000831117156102de57600080fd5b91908080601f016020809104026020016040519081016040528093929190818152602001838380828437600081840152601f19601f8201169050808301925050505050505091929192905050506108dd565b005b6103746004803603602081101561034857600080fd5b81019080803573ffffffffffffffffffffffffffffffffffffffff169060200190929190505050610d73565b005b6103a66004803603602081101561038c57600080fd5b81019080803561ffff169060200190929190505050611046565b005b6103b0611208565b005b6103ba611419565b005b6103c461162a565b005b6103f4600480360360208110156103dc57600080fd5b81019080803515159060200190929190505050611797565b005b6104226004803603602081101561040c57600080fd5b8101908080359060200190929190505050611e0b565b60405180878152602001868152602001806020018573ffffffffffffffffffffffffffffffffffffffff1681526020018461ffff1681526020018361ffff168152602001828103825286818151815260200191508051906020019080838360005b8381101561049e578082015181840152602081019050610483565b50505050905090810190601f1680156104cb5780820380516001836020036101000a031916815260200191505b5097505050505050505060405180910390f35b61050e600480360360208110156104f457600080fd5b81019080803561ffff169060200190929190505050611f2b565b005b610518612371565b604051808273ffffffffffffffffffffffffffffffffffffffff16815260200191505060405180910390f35b61054c61239a565b604051808261ffff16815260200191505060405180910390f35b61056e6123ae565b005b6105b26004803603602081101561058657600080fd5b81019080803573ffffffffffffffffffffffffffffffffffffffff1690602001909291905050506125bf565b60405180861515815260200185151581526020018461ffff168152602001831515815260200182151581526020019550505050505060405180910390f35b6105f8612637565b60405180806020018461ffff1681526020018361ffff168152602001828103825285818151815260200191508051906020019080838360005b8381101561064c578082015181840152602081019050610631565b50505050905090810190601f1680156106795780820380516001836020036101000a031916815260200191505b5094505050505060405180910390f35b6106d76004803603604081101561069f57600080fd5b81019080803573ffffffffffffffffffffffffffffffffffffffff169060200190929190803515159060200190929190505050612831565b005b6106e1612c2a565b005b610712600480360360208110156106f957600080fd5b81019080803560ff169060200190929190505050613140565b005b61071c6132b1565b005b610726613516565b6040518082600581111561073657fe5b815260200191505060405180910390f35b6107896004803603602081101561075d57600080fd5b81019080803573ffffffffffffffffffffffffffffffffffffffff169060200190929190505050613529565b005b6002818154811061079b57600080fd5b9060005260206000209060020201600091509050806000018054600181600116156101000203166002900480601f0160208091040260200160405190810160405280929190818152602001828054600181600116156101000203166002900480156108475780601f1061081c57610100808354040283529160200191610847565b820191906000526020600020905b81548152906001019060200180831161082a57829003601f168201915b5050505050908060010160009054906101000a900461ffff16908060010160029054906101000a900473ffffffffffffffffffffffffffffffffffffffff16908060010160169054906101000a900460ff16905084565b600481815481106108ae57600080fd5b906000526020600020016000915054906101000a900473ffffffffffffffffffffffffffffffffffffffff1681565b600160058111156108ea57fe5b600560049054906101000a900460ff16600581111561090557fe5b1461095b576040517f08c379a00000000000000000000000000000000000000000000000000000000081526004018080602001828103825260278152602001806139b36027913960400191505060405180910390fd5b600160003373ffffffffffffffffffffffffffffffffffffffff1673ffffffffffffffffffffffffffffffffffffffff16815260200190815260200160002060000160009054906101000a900460ff16610a1d576040517f08c379a00000000000000000000000000000000000000000000000000000000081526004018080602001828103825260138152602001807f566f746572206e6f74207265676973747265640000000000000000000000000081525060200191505060405180910390fd5b600160003373ffffffffffffffffffffffffffffffffffffffff1673ffffffffffffffffffffffffffffffffffffffff16815260200190815260200160002060000160049054906101000a900460ff16610adf576040517f08c379a00000000000000000000000000000000000000000000000000000000081526004018080602001828103825260128152602001807f566f746572206e6f742070726f706f736572000000000000000000000000000081525060200191505060405180910390fd5b600160003373ffffffffffffffffffffffffffffffffffffffff1673ffffffffffffffffffffffffffffffffffffffff16815260200190815260200160002060000160059054906101000a900460ff1615610ba2576040517f08c379a000000000000000000000000000000000000000000000000000000000815260040180806020018281038252601a8152602001807f566f7465722068617320616c72656164792070726f706f73656400000000000081525060200191505060405180910390fd5b60026040518060800160405280838152602001600061ffff1681526020013373ffffffffffffffffffffffffffffffffffffffff1681526020016001151581525090806001815401808255809150506001900390600052602060002090600202016000909190919091506000820151816000019080519060200190610c28929190613723565b5060208201518160010160006101000a81548161ffff021916908361ffff16021790555060408201518160010160026101000a81548173ffffffffffffffffffffffffffffffffffffffff021916908373ffffffffffffffffffffffffffffffffffffffff16021790555060608201518160010160166101000a81548160ff021916908315150217905550505060018060003373ffffffffffffffffffffffffffffffffffffffff1673ffffffffffffffffffffffffffffffffffffffff16815260200190815260200160002060000160056101000a81548160ff021916908315150217905550600060016002805490500390507fca195036d7c4d40b171ad51e9c891c830a0ad9a5e114b5b075cdf791317e300c81600560029054906101000a900461ffff16604051808381526020018261ffff1681526020019250505060405180910390a15050565b610d7b61371b565b73ffffffffffffffffffffffffffffffffffffffff16610d99612371565b73ffffffffffffffffffffffffffffffffffffffff1614610e22576040517f08c379a00000000000000000000000000000000000000000000000000000000081526004018080602001828103825260208152602001807f4f776e61626c653a2063616c6c6572206973206e6f7420746865206f776e657281525060200191505060405180910390fd5b60006005811115610e2f57fe5b600560049054906101000a900460ff166005811115610e4a57fe5b14610ebd576040517f08c379a000000000000000000000000000000000000000000000000000000000815260040180806020018281038252601c8152602001807f4e6f74205265676973746572696e67566f74657273205374617475730000000081525060200191505060405180910390fd5b600160008273ffffffffffffffffffffffffffffffffffffffff1673ffffffffffffffffffffffffffffffffffffffff16815260200190815260200160002060000160009054906101000a900460ff16610f7f576040517f08c379a00000000000000000000000000000000000000000000000000000000081526004018080602001828103825260138152602001807f566f746572206e6f74207265676973747265640000000000000000000000000081525060200191505060405180910390fd5b6000600160008373ffffffffffffffffffffffffffffffffffffffff1673ffffffffffffffffffffffffffffffffffffffff16815260200190815260200160002060000160006101000a81548160ff0219169083151502179055507f45f4ad77c4b8ab2be522a8c7c6907efbadd226f290bb6ce51ea3a8b0ac96e99b81600560029054906101000a900461ffff16604051808373ffffffffffffffffffffffffffffffffffffffff1681526020018261ffff1681526020019250505060405180910390a150565b61104e61371b565b73ffffffffffffffffffffffffffffffffffffffff1661106c612371565b73ffffffffffffffffffffffffffffffffffffffff16146110f5576040517f08c379a00000000000000000000000000000000000000000000000000000000081526004018080602001828103825260208152602001807f4f776e61626c653a2063616c6c6572206973206e6f7420746865206f776e657281525060200191505060405180910390fd5b6002600581111561110257fe5b600560049054906101000a900460ff16600581111561111d57fe5b14611173576040517f08c379a000000000000000000000000000000000000000000000000000000000815260040180806020018281038252602581526020018061398e6025913960400191505060405180910390fd5b600060028261ffff168154811061118657fe5b906000526020600020906002020160010160166101000a81548160ff0219169083151502179055507f8b5bf095151bfe56acc5daf5d5231c7c0c031cfcea2b12c5565838255066368481600560029054906101000a900461ffff16604051808361ffff1681526020018261ffff1681526020019250505060405180910390a150565b61121061371b565b73ffffffffffffffffffffffffffffffffffffffff1661122e612371565b73ffffffffffffffffffffffffffffffffffffffff16146112b7576040517f08c379a00000000000000000000000000000000000000000000000000000000081526004018080602001828103825260208152602001807f4f776e61626c653a2063616c6c6572206973206e6f7420746865206f776e657281525060200191505060405180910390fd5b600260058111156112c457fe5b600560049054906101000a900460ff1660058111156112df57fe5b14611335576040517f08c379a000000000000000000000000000000000000000000000000000000000815260040180806020018281038252602581526020018061398e6025913960400191505060405180910390fd5b6003600560046101000a81548160ff0219169083600581111561135457fe5b02179055507f1d520e327caba26c444617e7d36e7900df66f5e7cf7507e5ec5ffcda9d07e33560026003600560029054906101000a900461ffff166040518084600581111561139f57fe5b81526020018360058111156113b057fe5b81526020018261ffff168152602001935050505060405180910390a17fa9726274939b9e79c18898615eabbb9d02e7441f167819086bab785ae924de93600560029054906101000a900461ffff16604051808261ffff16815260200191505060405180910390a1565b61142161371b565b73ffffffffffffffffffffffffffffffffffffffff1661143f612371565b73ffffffffffffffffffffffffffffffffffffffff16146114c8576040517f08c379a00000000000000000000000000000000000000000000000000000000081526004018080602001828103825260208152602001807f4f776e61626c653a2063616c6c6572206973206e6f7420746865206f776e657281525060200191505060405180910390fd5b600160058111156114d557fe5b600560049054906101000a900460ff1660058111156114f057fe5b14611546576040517f08c379a00000000000000000000000000000000000000000000000000000000081526004018080602001828103825260278152602001806139b36027913960400191505060405180910390fd5b6002600560046101000a81548160ff0219169083600581111561156557fe5b02179055507f1d520e327caba26c444617e7d36e7900df66f5e7cf7507e5ec5ffcda9d07e33560016002600560029054906101000a900461ffff16604051808460058111156115b057fe5b81526020018360058111156115c157fe5b81526020018261ffff168152602001935050505060405180910390a17f949930d45cdfcfaf90b4f9f08cf19428d80125bf2a76743bc2f439a60417eadf600560029054906101000a900461ffff16604051808261ffff16815260200191505060405180910390a1565b61163261371b565b73ffffffffffffffffffffffffffffffffffffffff16611650612371565b73ffffffffffffffffffffffffffffffffffffffff16146116d9576040517f08c379a00000000000000000000000000000000000000000000000000000000081526004018080602001828103825260208152602001807f4f776e61626c653a2063616c6c6572206973206e6f7420746865206f776e657281525060200191505060405180910390fd5b600073ffffffffffffffffffffffffffffffffffffffff1660008054906101000a900473ffffffffffffffffffffffffffffffffffffffff1673ffffffffffffffffffffffffffffffffffffffff167f8be0079c531659141344cd1fd0a4f28419497f9722a3daafe3b4186f6b6457e060405160405180910390a360008060006101000a81548173ffffffffffffffffffffffffffffffffffffffff021916908373ffffffffffffffffffffffffffffffffffffffff160217905550565b6005808111156117a357fe5b600560049054906101000a900460ff1660058111156117be57fe5b14611831576040517f08c379a00000000000000000000000000000000000000000000000000000000081526004018080602001828103825260148152602001807f54616c6c696564206e6f742066696e697368656400000000000000000000000081525060200191505060405180910390fd5b6002600061183f91906137b1565b801561195c5760005b6004805490508161ffff161015611948576001600060048361ffff168154811061186e57fe5b9060005260206000200160009054906101000a900473ffffffffffffffffffffffffffffffffffffffff1673ffffffffffffffffffffffffffffffffffffffff1673ffffffffffffffffffffffffffffffffffffffff168152602001908152602001600020600080820160006101000a81549060ff02191690556000820160016101000a81549060ff02191690556000820160026101000a81549061ffff02191690556000820160046101000a81549060ff02191690556000820160056101000a81549060ff021916905550508080600101915050611848565b506004600061195791906137d5565b611aab565b60005b6004805490508161ffff161015611aa95760006001600060048461ffff168154811061198757fe5b9060005260206000200160009054906101000a900473ffffffffffffffffffffffffffffffffffffffff1673ffffffffffffffffffffffffffffffffffffffff1673ffffffffffffffffffffffffffffffffffffffff16815260200190815260200160002060000160016101000a81548160ff02191690831515021790555060006001600060048461ffff1681548110611a1d57fe5b9060005260206000200160009054906101000a900473ffffffffffffffffffffffffffffffffffffffff1673ffffffffffffffffffffffffffffffffffffffff1673ffffffffffffffffffffffffffffffffffffffff16815260200190815260200160002060000160056101000a81548160ff021916908315150217905550808060010191505061195f565b505b6005600281819054906101000a900461ffff168092919060010191906101000a81548161ffff021916908361ffff1602179055505060036040518060c0016040528060008152602001600081526020016040518060400160405280600281526020017f4e430000000000000000000000000000000000000000000000000000000000008152508152602001600073ffffffffffffffffffffffffffffffffffffffff168152602001600061ffff168152602001600061ffff16815250908060018154018082558091505060019003906000526020600020906004020160009091909190915060008201518160000155602082015181600101556040820151816002019080519060200190611bc0929190613723565b5060608201518160030160006101000a81548173ffffffffffffffffffffffffffffffffffffffff021916908373ffffffffffffffffffffffffffffffffffffffff16021790555060808201518160030160146101000a81548161ffff021916908361ffff16021790555060a08201518160030160166101000a81548161ffff021916908361ffff16021790555050506000600560046101000a81548160ff02191690836005811115611c6f57fe5b0217905550600260405180608001604052806040518060400160405280600a81526020017f426c616e6b20566f7465000000000000000000000000000000000000000000008152508152602001600061ffff168152602001600073ffffffffffffffffffffffffffffffffffffffff1681526020016001151581525090806001815401808255809150506001900390600052602060002090600202016000909190919091506000820151816000019080519060200190611d30929190613723565b5060208201518160010160006101000a81548161ffff021916908361ffff16021790555060408201518160010160026101000a81548173ffffffffffffffffffffffffffffffffffffffff021916908373ffffffffffffffffffffffffffffffffffffffff16021790555060608201518160010160166101000a81548160ff02191690831515021790555050507fd17d644375ea482b2c4b02c6bd3072fd8e5414b01d2b0c94ff456448fc027846600560029054906101000a900461ffff16604051808261ffff16815260200191505060405180910390a150565b60038181548110611e1b57600080fd5b9060005260206000209060040201600091509050806000015490806001015490806002018054600181600116156101000203166002900480601f016020809104026020016040519081016040528092919081815260200182805460018160011615610100020316600290048015611ed35780601f10611ea857610100808354040283529160200191611ed3565b820191906000526020600020905b815481529060010190602001808311611eb657829003601f168201915b5050505050908060030160009054906101000a900473ffffffffffffffffffffffffffffffffffffffff16908060030160149054906101000a900461ffff16908060030160169054906101000a900461ffff16905086565b600160003373ffffffffffffffffffffffffffffffffffffffff1673ffffffffffffffffffffffffffffffffffffffff16815260200190815260200160002060000160009054906101000a900460ff16611fed576040517f08c379a00000000000000000000000000000000000000000000000000000000081526004018080602001828103825260128152602001807f566f7465722063616e206e6f7420766f7465000000000000000000000000000081525060200191505060405180910390fd5b60036005811115611ffa57fe5b600560049054906101000a900460ff16600581111561201557fe5b14612088576040517f08c379a00000000000000000000000000000000000000000000000000000000081526004018080602001828103825260178152602001807f4974206973206e6f742074696d6520746f20766f74652100000000000000000081525060200191505060405180910390fd5b600160003373ffffffffffffffffffffffffffffffffffffffff1673ffffffffffffffffffffffffffffffffffffffff16815260200190815260200160002060000160019054906101000a900460ff161561214b576040517f08c379a00000000000000000000000000000000000000000000000000000000081526004018080602001828103825260168152602001807f566f7465722068617320616c726561647920766f74650000000000000000000081525060200191505060405180910390fd5b60028161ffff168154811061215c57fe5b906000526020600020906002020160010160169054906101000a900460ff166121ed576040517f08c379a00000000000000000000000000000000000000000000000000000000081526004018080602001828103825260148152602001807f50726f706f736974696f6e20696e61637469766500000000000000000000000081525060200191505060405180910390fd5b80600160003373ffffffffffffffffffffffffffffffffffffffff1673ffffffffffffffffffffffffffffffffffffffff16815260200190815260200160002060000160026101000a81548161ffff021916908361ffff16021790555060018060003373ffffffffffffffffffffffffffffffffffffffff1673ffffffffffffffffffffffffffffffffffffffff16815260200190815260200160002060000160016101000a81548160ff02191690831515021790555060028161ffff16815481106122b557fe5b9060005260206000209060020201600101600081819054906101000a900461ffff168092919060010191906101000a81548161ffff021916908361ffff160217905550507fea66f58e474bc09f580000e81f31b334d171db387d0c6098ba47bd897741679b3382600560029054906101000a900461ffff16604051808473ffffffffffffffffffffffffffffffffffffffff1681526020018361ffff1681526020018261ffff168152602001935050505060405180910390a150565b60008060009054906101000a900473ffffffffffffffffffffffffffffffffffffffff16905090565b600560029054906101000a900461ffff1681565b6123b661371b565b73ffffffffffffffffffffffffffffffffffffffff166123d4612371565b73ffffffffffffffffffffffffffffffffffffffff161461245d576040517f08c379a00000000000000000000000000000000000000000000000000000000081526004018080602001828103825260208152602001807f4f776e61626c653a2063616c6c6572206973206e6f7420746865206f776e657281525060200191505060405180910390fd5b6003600581111561246a57fe5b600560049054906101000a900460ff16600581111561248557fe5b146124db576040517f08c379a000000000000000000000000000000000000000000000000000000000815260040180806020018281038252602581526020018061398e6025913960400191505060405180910390fd5b6004600560046101000a81548160ff021916908360058111156124fa57fe5b02179055507f1d520e327caba26c444617e7d36e7900df66f5e7cf7507e5ec5ffcda9d07e33560036004600560029054906101000a900461ffff166040518084600581111561254557fe5b815260200183600581111561255657fe5b81526020018261ffff168152602001935050505060405180910390a17f9956bd7b1ae344fbb54dbd02a85e2283bec6bf75f7fccbaa9c2392a715e71e49600560029054906101000a900461ffff16604051808261ffff16815260200191505060405180910390a1565b60016020528060005260406000206000915090508060000160009054906101000a900460ff16908060000160019054906101000a900460ff16908060000160029054906101000a900461ffff16908060000160049054906101000a900460ff16908060000160059054906101000a900460ff16905085565b606060008060058081111561264857fe5b600560049054906101000a900460ff16600581111561266357fe5b146126d6576040517f08c379a00000000000000000000000000000000000000000000000000000000081526004018080602001828103825260148152602001807f54616c6c696564206e6f742066696e697368656400000000000000000000000081525060200191505060405180910390fd5b6002600560009054906101000a900461ffff1661ffff16815481106126f757fe5b90600052602060002090600202016000016002600560009054906101000a900461ffff1661ffff168154811061272957fe5b906000526020600020906002020160010160009054906101000a900461ffff166003600560029054906101000a900461ffff1661ffff168154811061276a57fe5b906000526020600020906004020160030160169054906101000a900461ffff16828054600181600116156101000203166002900480601f01602080910402602001604051908101604052809291908181526020018280546001816001161561010002031660029004801561281f5780601f106127f45761010080835404028352916020019161281f565b820191906000526020600020905b81548152906001019060200180831161280257829003601f168201915b50505050509250925092509250909192565b61283961371b565b73ffffffffffffffffffffffffffffffffffffffff16612857612371565b73ffffffffffffffffffffffffffffffffffffffff16146128e0576040517f08c379a00000000000000000000000000000000000000000000000000000000081526004018080602001828103825260208152602001807f4f776e61626c653a2063616c6c6572206973206e6f7420746865206f776e657281525060200191505060405180910390fd5b600060058111156128ed57fe5b600560049054906101000a900460ff16600581111561290857fe5b1461297b576040517f08c379a000000000000000000000000000000000000000000000000000000000815260040180806020018281038252601c8152602001807f4e6f74205265676973746572696e67566f74657273205374617475730000000081525060200191505060405180910390fd5b600160008373ffffffffffffffffffffffffffffffffffffffff1673ffffffffffffffffffffffffffffffffffffffff16815260200190815260200160002060000160009054906101000a900460ff1615612a3e576040517f08c379a00000000000000000000000000000000000000000000000000000000081526004018080602001828103825260178152602001807f566f74657220616c72656164792072656769737472656400000000000000000081525060200191505060405180910390fd5b6040518060a00160405280600115158152602001600015158152602001600061ffff168152602001821515815260200160001515815250600160008473ffffffffffffffffffffffffffffffffffffffff1673ffffffffffffffffffffffffffffffffffffffff16815260200190815260200160002060008201518160000160006101000a81548160ff02191690831515021790555060208201518160000160016101000a81548160ff02191690831515021790555060408201518160000160026101000a81548161ffff021916908361ffff16021790555060608201518160000160046101000a81548160ff02191690831515021790555060808201518160000160056101000a81548160ff0219169083151502179055509050506004829080600181540180825580915050600190039060005260206000200160009091909190916101000a81548173ffffffffffffffffffffffffffffffffffffffff021916908373ffffffffffffffffffffffffffffffffffffffff1602179055507ff16ce2c2236e2c6e3df646f80d657bceef4cd7f3a240c47e82adfa17a5f4724182600560029054906101000a900461ffff16604051808373ffffffffffffffffffffffffffffffffffffffff1681526020018261ffff1681526020019250505060405180910390a15050565b612c3261371b565b73ffffffffffffffffffffffffffffffffffffffff16612c50612371565b73ffffffffffffffffffffffffffffffffffffffff1614612cd9576040517f08c379a00000000000000000000000000000000000000000000000000000000081526004018080602001828103825260208152602001807f4f776e61626c653a2063616c6c6572206973206e6f7420746865206f776e657281525060200191505060405180910390fd5b60046005811115612ce657fe5b600560049054906101000a900460ff166005811115612d0157fe5b14612d74576040517f08c379a00000000000000000000000000000000000000000000000000000000081526004018080602001828103825260188152602001807f53657373696f6e206973207374696c6c206f6e676f696e67000000000000000081525060200191505060405180910390fd5b60058060046101000a81548160ff02191690836005811115612d9257fe5b02179055506000806000805b6002805490508161ffff161015612e68578261ffff1660028261ffff1681548110612dc557fe5b906000526020600020906002020160010160009054906101000a900461ffff1661ffff161115612e265780935060028161ffff1681548110612e0357fe5b906000526020600020906002020160010160009054906101000a900461ffff1692505b60028161ffff1681548110612e3757fe5b906000526020600020906002020160010160009054906101000a900461ffff16820191508080600101915050612d9e565b5082600560006101000a81548161ffff021916908361ffff160217905550426003600560029054906101000a900461ffff1661ffff1681548110612ea857fe5b90600052602060002090600402016001018190555060028361ffff1681548110612ece57fe5b90600052602060002090600202016000016003600560029054906101000a900461ffff1661ffff1681548110612f0057fe5b90600052602060002090600402016002019080546001816001161561010002031660029004612f309291906137f6565b5060028361ffff1681548110612f4257fe5b906000526020600020906002020160010160029054906101000a900473ffffffffffffffffffffffffffffffffffffffff166003600560029054906101000a900461ffff1661ffff1681548110612f9557fe5b906000526020600020906004020160030160006101000a81548173ffffffffffffffffffffffffffffffffffffffff021916908373ffffffffffffffffffffffffffffffffffffffff160217905550816003600560029054906101000a900461ffff1661ffff168154811061300657fe5b906000526020600020906004020160030160146101000a81548161ffff021916908361ffff160217905550806003600560029054906101000a900461ffff1661ffff168154811061305357fe5b906000526020600020906004020160030160166101000a81548161ffff021916908361ffff1602179055507f1d520e327caba26c444617e7d36e7900df66f5e7cf7507e5ec5ffcda9d07e335600460058060029054906101000a900461ffff16604051808460058111156130c357fe5b81526020018360058111156130d457fe5b81526020018261ffff168152602001935050505060405180910390a17fd50c1fd4ce30d65682cf92d04facc6fcd5e23d20a9af6d037faf9c7ac945ade6600560029054906101000a900461ffff16604051808261ffff16815260200191505060405180910390a1505050565b61314861371b565b73ffffffffffffffffffffffffffffffffffffffff16613166612371565b73ffffffffffffffffffffffffffffffffffffffff16146131ef576040517f08c379a00000000000000000000000000000000000000000000000000000000081526004018080602001828103825260208152602001807f4f776e61626c653a2063616c6c6572206973206e6f7420746865206f776e657281525060200191505060405180910390fd5b7f1d520e327caba26c444617e7d36e7900df66f5e7cf7507e5ec5ffcda9d07e335600560049054906101000a900460ff168260ff16600581111561322f57fe5b600560029054906101000a900461ffff166040518084600581111561325057fe5b815260200183600581111561326157fe5b81526020018261ffff168152602001935050505060405180910390a18060ff16600581111561328c57fe5b600560046101000a81548160ff021916908360058111156132a957fe5b021790555050565b6132b961371b565b73ffffffffffffffffffffffffffffffffffffffff166132d7612371565b73ffffffffffffffffffffffffffffffffffffffff1614613360576040517f08c379a00000000000000000000000000000000000000000000000000000000081526004018080602001828103825260208152602001807f4f776e61626c653a2063616c6c6572206973206e6f7420746865206f776e657281525060200191505060405180910390fd5b6000600581111561336d57fe5b600560049054906101000a900460ff16600581111561338857fe5b146133fb576040517f08c379a000000000000000000000000000000000000000000000000000000000815260040180806020018281038252601c8152602001807f4e6f74205265676973746572696e67566f74657273205374617475730000000081525060200191505060405180910390fd5b426003600560029054906101000a900461ffff1661ffff168154811061341d57fe5b9060005260206000209060040201600001819055506001600560046101000a81548160ff0219169083600581111561345157fe5b02179055507f1d520e327caba26c444617e7d36e7900df66f5e7cf7507e5ec5ffcda9d07e33560006001600560029054906101000a900461ffff166040518084600581111561349c57fe5b81526020018360058111156134ad57fe5b81526020018261ffff168152602001935050505060405180910390a17fb751da72ce1967bb446b81cfd2c497796d3735d046c5448a569a02ee820f9bb6600560029054906101000a900461ffff16604051808261ffff16815260200191505060405180910390a1565b600560049054906101000a900460ff1681565b61353161371b565b73ffffffffffffffffffffffffffffffffffffffff1661354f612371565b73ffffffffffffffffffffffffffffffffffffffff16146135d8576040517f08c379a00000000000000000000000000000000000000000000000000000000081526004018080602001828103825260208152602001807f4f776e61626c653a2063616c6c6572206973206e6f7420746865206f776e657281525060200191505060405180910390fd5b600073ffffffffffffffffffffffffffffffffffffffff168173ffffffffffffffffffffffffffffffffffffffff16141561365e576040517f08c379a00000000000000000000000000000000000000000000000000000000081526004018080602001828103825260268152602001806139686026913960400191505060405180910390fd5b8073ffffffffffffffffffffffffffffffffffffffff1660008054906101000a900473ffffffffffffffffffffffffffffffffffffffff1673ffffffffffffffffffffffffffffffffffffffff167f8be0079c531659141344cd1fd0a4f28419497f9722a3daafe3b4186f6b6457e060405160405180910390a3806000806101000a81548173ffffffffffffffffffffffffffffffffffffffff021916908373ffffffffffffffffffffffffffffffffffffffff16021790555050565b600033905090565b828054600181600116156101000203166002900490600052602060002090601f01602090048101928261375957600085556137a0565b82601f1061377257805160ff19168380011785556137a0565b828001600101855582156137a0579182015b8281111561379f578251825591602001919060010190613784565b5b5090506137ad919061388b565b5090565b50805460008255600202906000526020600020908101906137d291906138a8565b50565b50805460008255906000526020600020908101906137f3919061388b565b50565b828054600181600116156101000203166002900490600052602060002090601f01602090048101928261382c576000855561387a565b82601f1061383d578054855561387a565b8280016001018555821561387a57600052602060002091601f016020900482015b8281111561387957825482559160010191906001019061385e565b5b509050613887919061388b565b5090565b5b808211156138a457600081600090555060010161388c565b5090565b5b8082111561391b57600080820160006138c2919061391f565b6001820160006101000a81549061ffff02191690556001820160026101000a81549073ffffffffffffffffffffffffffffffffffffffff02191690556001820160166101000a81549060ff0219169055506002016138a9565b5090565b50805460018160011615610100020316600290046000825580601f106139455750613964565b601f016020900490600052602060002090810190613963919061388b565b5b5056fe4f776e61626c653a206e6577206f776e657220697320746865207a65726f20616464726573734e6f742050726f706f73616c73526567697374726174696f6e456e646564205374617475734e6f742050726f706f73616c73526567697374726174696f6e5374617274656420537461747573a264697066735822122018e03c9f8916a8f35aa25d71974c0f2e6b3bc5aa63802aa78a8c8b50ae85ba5f64736f6c63430007040033",
  "immutableReferences": {},
  "source": "// SPDX-License-Identifier:  GPL-3.0\r\npragma solidity 0.7.4;\r\n \r\n//import \"https://github.com/OpenZeppelin/openzeppelin-contracts/blob/master/contracts/access/Ownable.sol\";\r\nimport \"@openzeppelin/contracts/access/Ownable.sol\";\r\n\r\n/**\r\n * @title Voting\r\n * @dev Organise Voters registration, proposals registration, votes talling, resetting session\r\n * @author Hlne Bunel\r\n * @author Edouard Vahanian\r\n * @author Daniel Villa Monteiro\r\n * @notice We use uint16 size to index propoesals, voters and sessions (limit 65 536)\r\n */\r\n\r\ncontract Voting is Ownable {\r\n    \r\n    /**\r\n     * @dev Structure of Voter\r\n     * @notice Feature_V2 : isAbleToPropose and hasProposed\r\n     */\r\n    struct Voter {\r\n        bool isRegistered;\r\n        bool hasVoted; \r\n        uint16 votedProposalId;\r\n        bool isAbleToPropose; \r\n        bool hasProposed; \r\n    }\r\n    \r\n     /**\r\n     * @dev Structure of Voter\r\n     * @notice Feature_V2 : author and isActive\r\n     */\r\n    struct Proposal {\r\n        string description;\r\n        uint16 voteCount;\r\n        address author; \r\n        bool isActive;   \r\n    }\r\n    \r\n    /**\r\n     * @dev Structure of Session\r\n     * @notice Feature_V2\r\n     */\r\n    struct Session {\r\n        uint startTimeSession;  \r\n        uint endTimeSession;  \r\n        string winningProposalName;    \r\n        address proposer;\r\n        uint16 nbVotes;\r\n        uint16 totalVotes;\r\n    }\r\n\r\n\r\n    /**\r\n     * @dev WorkflowStatus\r\n     * @notice 6 states \r\n     */\r\n    enum WorkflowStatus {\r\n        RegisteringVoters,\r\n        ProposalsRegistrationStarted,\r\n        ProposalsRegistrationEnded,\r\n        VotingSessionStarted,\r\n        VotingSessionEnded,\r\n        VotesTallied\r\n    }\r\n \r\n    event VoterRegistered(address voterAddress, uint sessionId);\r\n    event VoterUnRegistered(address voterAddress, uint sessionId);                                              // Feature_V2     \r\n    event ProposalsRegistrationStarted(uint sessionId);\r\n    event ProposalsRegistrationEnded(uint sessionId);\r\n    event ProposalRegistered(uint proposalId, uint sessionId);\r\n    event ProposalUnRegistered(uint proposalId, uint sessionId);                                                // Feature_V2    \r\n    event VotingSessionStarted(uint sessionId);\r\n    event VotingSessionEnded(uint sessionId);\r\n    event Voted (address voter, uint proposalId, uint sessionId);\r\n    event VotesTallied(uint sessionId);\r\n    event WorkflowStatusChange(WorkflowStatus previousStatus, WorkflowStatus newStatus, uint sessionId);\r\n    event SessionRestart(uint sessionId);\r\n    \r\n    mapping(address => Voter) public voters;\r\n    Proposal[] public proposals;\r\n    Session[] public sessions;\r\n    address[] public addressToSave;\r\n    uint16 proposalWinningId;\r\n    uint16 public sessionId;    \r\n    \r\n    WorkflowStatus public currentStatus;\r\n\r\n    constructor(){\r\n        sessionId=0;\r\n        sessions.push(Session(0,0,'NC',address(0),0,0));\r\n        currentStatus = WorkflowStatus.RegisteringVoters;\r\n        proposals.push(Proposal('Blank Vote', 0, address(0), true));\r\n    }\r\n    \r\n    \r\n    /**\r\n     * @dev Force change of status\r\n     * @param newStatus forced\r\n     */\r\n    function adminChangeStatus(uint8 newStatus) external onlyOwner{\r\n        // TODO Clean after testing\r\n        emit WorkflowStatusChange(WorkflowStatus(currentStatus), WorkflowStatus(newStatus), sessionId);\r\n        currentStatus = WorkflowStatus(newStatus);\r\n    }\r\n    \r\n    \r\n    /**\r\n     * @dev Add a voter\r\n     * @param _addressVoter address of new voter\r\n     * @param _isAbleToPropose is voter abble to propose proposals\r\n     */\r\n    function addVoter(address _addressVoter, bool _isAbleToPropose) external onlyOwner{\r\n        require(currentStatus == WorkflowStatus.RegisteringVoters, \"Not RegisteringVoters Status\");        \r\n        require(!voters[_addressVoter].isRegistered, \"Voter already registred\");\r\n\r\n        voters[_addressVoter] = Voter(true, false, 0, _isAbleToPropose, false);\r\n        addressToSave.push(_addressVoter);\r\n\r\n        emit VoterRegistered(_addressVoter, sessionId);\r\n    }\r\n    \r\n    /**\r\n     * @dev Remove a voter\r\n     * @param _addressVoter address of new voter\r\n     */\r\n    function removedVoter(address _addressVoter) external onlyOwner{\r\n        require(currentStatus == WorkflowStatus.RegisteringVoters, \"Not RegisteringVoters Status\");        \r\n        require(voters[_addressVoter].isRegistered, \"Voter not registred\");\r\n        \r\n        voters[_addressVoter].isRegistered = false;\r\n\r\n        emit VoterUnRegistered(_addressVoter, sessionId);\r\n    }\r\n\r\n    /**\r\n     * @dev Change status to ProposalsRegistrationStarted\r\n     */\r\n    function proposalSessionBegin() external onlyOwner{\r\n        require(currentStatus == WorkflowStatus.RegisteringVoters, \"Not RegisteringVoters Status\");\r\n        \r\n        sessions[sessionId].startTimeSession = block.timestamp;\r\n        \r\n        currentStatus = WorkflowStatus.ProposalsRegistrationStarted;\r\n\r\n        emit WorkflowStatusChange(WorkflowStatus.RegisteringVoters, WorkflowStatus.ProposalsRegistrationStarted, sessionId);\r\n        emit ProposalsRegistrationStarted(sessionId);       \r\n    }\r\n\r\n    /**\r\n     * @dev Add a proposal\r\n     * @param _content content of proposal\r\n     */\r\n    function addProposal(string memory _content) external {\r\n        require(currentStatus == WorkflowStatus.ProposalsRegistrationStarted, \"Not ProposalsRegistrationStarted Status\");\r\n        require(voters[msg.sender].isRegistered, \"Voter not registred\");\r\n        require(voters[msg.sender].isAbleToPropose, \"Voter not proposer\");\r\n        require(!voters[msg.sender].hasProposed, \"Voter has already proposed\");\r\n\r\n        proposals.push(Proposal(_content, 0, msg.sender, true));\r\n        voters[msg.sender].hasProposed = true;\r\n        \r\n        uint proposalId = proposals.length-1;\r\n\r\n        emit ProposalRegistered(proposalId, sessionId);\r\n    }    \r\n\r\n    /**\r\n     * @dev Change status to ProposalsRegistrationEnded\r\n     */\r\n    function proposalSessionEnded() external onlyOwner{\r\n        require(currentStatus == WorkflowStatus.ProposalsRegistrationStarted, \"Not ProposalsRegistrationStarted Status\");\r\n        \r\n        currentStatus = WorkflowStatus.ProposalsRegistrationEnded;\r\n        \r\n        emit WorkflowStatusChange(WorkflowStatus.ProposalsRegistrationStarted, WorkflowStatus.ProposalsRegistrationEnded, sessionId);\r\n        emit ProposalsRegistrationEnded(sessionId);       \r\n    }\r\n    \r\n    /**\r\n     * @dev Remove a proposal\r\n     * @param _proposalId index of proposal to deactivate\r\n     * @notice Feature_V2\r\n     */\r\n    function removeProposal(uint16 _proposalId) external onlyOwner{\r\n        require(currentStatus == WorkflowStatus.ProposalsRegistrationEnded, \"Not ProposalsRegistrationEnded Status\");\r\n      \r\n        proposals[_proposalId].isActive = false;\r\n\r\n        emit ProposalUnRegistered(_proposalId, sessionId);\r\n    }        \r\n    \r\n    /**\r\n     * @dev Change status to VotingSessionStarted\r\n     */\r\n    function votingSessionStarted() external onlyOwner{\r\n        require(currentStatus == WorkflowStatus.ProposalsRegistrationEnded, \"Not ProposalsRegistrationEnded Status\");\r\n        \r\n        currentStatus = WorkflowStatus.VotingSessionStarted;\r\n        \r\n        emit WorkflowStatusChange(WorkflowStatus.ProposalsRegistrationEnded, WorkflowStatus.VotingSessionStarted, sessionId);\r\n        emit VotingSessionStarted(sessionId);        \r\n    }    \r\n    \r\n    /**\r\n     * @dev Add a vote\r\n     * @param _votedProposalId index of proposal to vote\r\n     */\r\n    function addVote(uint16 _votedProposalId) external {\r\n        require(voters[msg.sender].isRegistered, \"Voter can not vote\");\r\n        require(currentStatus == WorkflowStatus.VotingSessionStarted, \"It is not time to vote!\");\r\n        require(!voters[msg.sender].hasVoted, \"Voter has already vote\");        \r\n        require(proposals[_votedProposalId].isActive, \"Proposition inactive\");      \r\n\r\n        voters[msg.sender].votedProposalId = _votedProposalId;\r\n        voters[msg.sender].hasVoted = true;\r\n        proposals[_votedProposalId].voteCount++;\r\n\r\n        emit Voted (msg.sender, _votedProposalId, sessionId);\r\n    }\r\n    \r\n     /**\r\n     * @dev Change status to VotingSessionEnded\r\n     */ \r\n    function votingSessionEnded() external onlyOwner{\r\n        require(currentStatus == WorkflowStatus.VotingSessionStarted, \"Not ProposalsRegistrationEnded Status\");\r\n        \r\n        currentStatus = WorkflowStatus.VotingSessionEnded;\r\n        \r\n        emit WorkflowStatusChange(WorkflowStatus.VotingSessionStarted, WorkflowStatus.VotingSessionEnded, sessionId);\r\n        emit VotingSessionEnded(sessionId);     \r\n    }       \r\n    \r\n    \r\n    /**\r\n     * @dev Tallied votes\r\n     */\r\n    function votesTallied() external onlyOwner {\r\n        require(currentStatus == WorkflowStatus.VotingSessionEnded, \"Session is still ongoing\");\r\n        \r\n        currentStatus = WorkflowStatus.VotesTallied;\r\n        \r\n        uint16 currentWinnerId;\r\n        uint16 nbVotesWinner;\r\n        uint16 totalVotes;\r\n\r\n        for(uint16 i; i<proposals.length; i++){\r\n            if (proposals[i].voteCount > nbVotesWinner){\r\n                currentWinnerId = i;\r\n                nbVotesWinner = proposals[i].voteCount;\r\n            }\r\n            totalVotes += proposals[i].voteCount;\r\n        }\r\n        proposalWinningId = currentWinnerId;\r\n        sessions[sessionId].endTimeSession = block.timestamp;\r\n        sessions[sessionId].winningProposalName = proposals[currentWinnerId].description;\r\n        sessions[sessionId].proposer = proposals[currentWinnerId].author;\r\n        sessions[sessionId].nbVotes = nbVotesWinner;\r\n        sessions[sessionId].totalVotes = totalVotes;       \r\n\r\n        emit WorkflowStatusChange(WorkflowStatus.VotingSessionEnded, WorkflowStatus.VotesTallied, sessionId);\r\n        emit VotesTallied(sessionId);\r\n    }\r\n\r\n    /**\r\n     * @dev Send Winning Proposal\r\n     * @return contentProposal description of proposal\r\n     * @return nbVotes number of votes\r\n     * @return nbVotesTotal number of totals votes\r\n     */\r\n    function getWinningProposal() external view returns(string memory contentProposal, uint16 nbVotes, uint16 nbVotesTotal){\r\n        require(currentStatus == WorkflowStatus.VotesTallied, \"Tallied not finished\"); \r\n        return (\r\n            proposals[proposalWinningId].description,\r\n            proposals[proposalWinningId].voteCount,\r\n            sessions[sessionId].totalVotes\r\n        );\r\n    }\r\n    \r\n     /**\r\n     * @dev Restart session\r\n     * @param deleteVoters delete voters\r\n     * @notice Feature_V2  \r\n     */ \r\n    function restartSession (bool deleteVoters) external {\r\n        require(currentStatus == WorkflowStatus.VotesTallied, \"Tallied not finished\"); \r\n  \r\n        delete(proposals);\r\n        if(deleteVoters){\r\n            for(uint16 i; i<addressToSave.length; i++){\r\n                delete(voters[addressToSave[i]]);\r\n            }\r\n            delete(addressToSave);\r\n        }\r\n        else{\r\n            for(uint16 i; i<addressToSave.length; i++){\r\n                voters[addressToSave[i]].hasVoted=false;\r\n                voters[addressToSave[i]].hasProposed=false;   \r\n            }\r\n        }    \r\n    \r\n        sessionId++;\r\n        sessions.push(Session(0,0,'NC',address(0),0,0));\r\n        currentStatus = WorkflowStatus.RegisteringVoters;\r\n        proposals.push(Proposal('Blank Vote', 0, address(0), true));      \r\n        \r\n        emit SessionRestart(sessionId);\r\n    }\r\n \r\n} ",
  "sourcePath": "C:/Users/danie/Desktop/Solidity/React_Voting/contracts/Voting.sol",
  "compiler": {
    "name": "solc",
    "version": "0.7.4+commit.3f05b770.Emscripten.clang"
  },
  "schemaVersion": "3.3.4",
  "updatedAt": "2021-03-18T16:24:23.209Z",
  "devdoc": {
    "author": "Hlne BunelEdouard VahanianDaniel Villa Monteiro",
    "details": "Organise Voters registration, proposals registration, votes talling, resetting session",
    "kind": "dev",
    "methods": {
      "addProposal(string)": {
        "details": "Add a proposal",
        "params": {
          "_content": "content of proposal"
        }
      },
      "addVote(uint16)": {
        "details": "Add a vote",
        "params": {
          "_votedProposalId": "index of proposal to vote"
        }
      },
      "addVoter(address,bool)": {
        "details": "Add a voter",
        "params": {
          "_addressVoter": "address of new voter",
          "_isAbleToPropose": "is voter abble to propose proposals"
        }
      },
      "adminChangeStatus(uint8)": {
        "details": "Force change of status",
        "params": {
          "newStatus": "forced"
        }
      },
      "getWinningProposal()": {
        "details": "Send Winning Proposal",
        "returns": {
          "contentProposal": "description of proposal",
          "nbVotes": "number of votes",
          "nbVotesTotal": "number of totals votes"
        }
      },
      "owner()": {
        "details": "Returns the address of the current owner."
      },
      "proposalSessionBegin()": {
        "details": "Change status to ProposalsRegistrationStarted"
      },
      "proposalSessionEnded()": {
        "details": "Change status to ProposalsRegistrationEnded"
      },
      "removeProposal(uint16)": {
        "details": "Remove a proposal",
        "params": {
          "_proposalId": "index of proposal to deactivate"
        }
      },
      "removedVoter(address)": {
        "details": "Remove a voter",
        "params": {
          "_addressVoter": "address of new voter"
        }
      },
      "renounceOwnership()": {
        "details": "Leaves the contract without owner. It will not be possible to call `onlyOwner` functions anymore. Can only be called by the current owner. NOTE: Renouncing ownership will leave the contract without an owner, thereby removing any functionality that is only available to the owner."
      },
      "restartSession(bool)": {
        "details": "Restart session",
        "params": {
          "deleteVoters": "delete voters"
        }
      },
      "transferOwnership(address)": {
        "details": "Transfers ownership of the contract to a new account (`newOwner`). Can only be called by the current owner."
      },
      "votesTallied()": {
        "details": "Tallied votes"
      },
      "votingSessionEnded()": {
        "details": "Change status to VotingSessionEnded"
      },
      "votingSessionStarted()": {
        "details": "Change status to VotingSessionStarted"
      }
    },
    "title": "Voting",
    "version": 1
  },
  "userdoc": {
    "kind": "user",
    "methods": {
      "removeProposal(uint16)": {
        "notice": "Feature_V2"
      },
      "restartSession(bool)": {
        "notice": "Feature_V2  "
      }
    },
    "notice": "We use uint16 size to index propoesals, voters and sessions (limit 65 536)",
    "version": 1
  }
}