{
  "contractName": "Voting",
  "abi": [
    {
      "inputs": [],
      "stateMutability": "nonpayable",
      "type": "constructor"
    },
    {
      "anonymous": false,
      "inputs": [
        {
          "indexed": true,
          "internalType": "address",
          "name": "previousOwner",
          "type": "address"
        },
        {
          "indexed": true,
          "internalType": "address",
          "name": "newOwner",
          "type": "address"
        }
      ],
      "name": "OwnershipTransferred",
      "type": "event"
    },
    {
      "anonymous": false,
      "inputs": [
        {
          "indexed": false,
          "internalType": "uint256",
          "name": "proposalId",
          "type": "uint256"
        },
        {
          "indexed": false,
          "internalType": "string",
          "name": "proposal",
          "type": "string"
        },
        {
          "indexed": false,
          "internalType": "address",
          "name": "owner",
          "type": "address"
        },
        {
          "indexed": false,
          "internalType": "uint256",
          "name": "sessionId",
          "type": "uint256"
        }
      ],
      "name": "ProposalRegistered",
      "type": "event"
    },
    {
      "anonymous": false,
      "inputs": [
        {
          "indexed": false,
          "internalType": "uint256",
          "name": "proposalId",
          "type": "uint256"
        },
        {
          "indexed": false,
          "internalType": "string",
          "name": "proposal",
          "type": "string"
        },
        {
          "indexed": false,
          "internalType": "address",
          "name": "owner",
          "type": "address"
        },
        {
          "indexed": false,
          "internalType": "uint256",
          "name": "sessionId",
          "type": "uint256"
        }
      ],
      "name": "ProposalUnRegistered",
      "type": "event"
    },
    {
      "anonymous": false,
      "inputs": [
        {
          "indexed": false,
          "internalType": "uint256",
          "name": "sessionId",
          "type": "uint256"
        }
      ],
      "name": "ProposalsRegistrationEnded",
      "type": "event"
    },
    {
      "anonymous": false,
      "inputs": [
        {
          "indexed": false,
          "internalType": "uint256",
          "name": "sessionId",
          "type": "uint256"
        }
      ],
      "name": "ProposalsRegistrationStarted",
      "type": "event"
    },
    {
      "anonymous": false,
      "inputs": [
        {
          "indexed": false,
          "internalType": "uint256",
          "name": "sessionId",
          "type": "uint256"
        }
      ],
      "name": "SessionRestart",
      "type": "event"
    },
    {
      "anonymous": false,
      "inputs": [
        {
          "indexed": false,
          "internalType": "address",
          "name": "voter",
          "type": "address"
        },
        {
          "indexed": false,
          "internalType": "uint256",
          "name": "proposalId",
          "type": "uint256"
        },
        {
          "indexed": false,
          "internalType": "uint256",
          "name": "sessionId",
          "type": "uint256"
        }
      ],
      "name": "Voted",
      "type": "event"
    },
    {
      "anonymous": false,
      "inputs": [
        {
          "indexed": false,
          "internalType": "address",
          "name": "voterAddress",
          "type": "address"
        },
        {
          "indexed": false,
          "internalType": "bool",
          "name": "isAbleToPropose",
          "type": "bool"
        },
        {
          "indexed": false,
          "internalType": "uint256",
          "name": "sessionId",
          "type": "uint256"
        }
      ],
      "name": "VoterRegistered",
      "type": "event"
    },
    {
      "anonymous": false,
      "inputs": [
        {
          "indexed": false,
          "internalType": "address",
          "name": "voterAddress",
          "type": "address"
        },
        {
          "indexed": false,
          "internalType": "uint256",
          "name": "sessionId",
          "type": "uint256"
        }
      ],
      "name": "VoterUnRegistered",
      "type": "event"
    },
    {
      "anonymous": false,
      "inputs": [
        {
          "indexed": false,
          "internalType": "uint256",
          "name": "sessionId",
          "type": "uint256"
        }
      ],
      "name": "VotesTallied",
      "type": "event"
    },
    {
      "anonymous": false,
      "inputs": [
        {
          "indexed": false,
          "internalType": "uint256",
          "name": "sessionId",
          "type": "uint256"
        }
      ],
      "name": "VotingSessionEnded",
      "type": "event"
    },
    {
      "anonymous": false,
      "inputs": [
        {
          "indexed": false,
          "internalType": "uint256",
          "name": "sessionId",
          "type": "uint256"
        }
      ],
      "name": "VotingSessionStarted",
      "type": "event"
    },
    {
      "anonymous": false,
      "inputs": [
        {
          "indexed": false,
          "internalType": "enum Voting.WorkflowStatus",
          "name": "previousStatus",
          "type": "uint8"
        },
        {
          "indexed": false,
          "internalType": "enum Voting.WorkflowStatus",
          "name": "newStatus",
          "type": "uint8"
        },
        {
          "indexed": false,
          "internalType": "uint256",
          "name": "sessionId",
          "type": "uint256"
        }
      ],
      "name": "WorkflowStatusChange",
      "type": "event"
    },
    {
      "inputs": [
        {
          "internalType": "uint256",
          "name": "",
          "type": "uint256"
        }
      ],
      "name": "addressToSave",
      "outputs": [
        {
          "internalType": "address",
          "name": "",
          "type": "address"
        }
      ],
      "stateMutability": "view",
      "type": "function",
      "constant": true
    },
    {
      "inputs": [],
      "name": "currentStatus",
      "outputs": [
        {
          "internalType": "enum Voting.WorkflowStatus",
          "name": "",
          "type": "uint8"
        }
      ],
      "stateMutability": "view",
      "type": "function",
      "constant": true
    },
    {
      "inputs": [],
      "name": "owner",
      "outputs": [
        {
          "internalType": "address",
          "name": "",
          "type": "address"
        }
      ],
      "stateMutability": "view",
      "type": "function",
      "constant": true
    },
    {
      "inputs": [
        {
          "internalType": "uint256",
          "name": "",
          "type": "uint256"
        }
      ],
      "name": "proposals",
      "outputs": [
        {
          "internalType": "string",
          "name": "description",
          "type": "string"
        },
        {
          "internalType": "uint16",
          "name": "voteCount",
          "type": "uint16"
        },
        {
          "internalType": "address",
          "name": "author",
          "type": "address"
        },
        {
          "internalType": "bool",
          "name": "isActive",
          "type": "bool"
        }
      ],
      "stateMutability": "view",
      "type": "function",
      "constant": true
    },
    {
      "inputs": [],
      "name": "renounceOwnership",
      "outputs": [],
      "stateMutability": "nonpayable",
      "type": "function"
    },
    {
      "inputs": [],
      "name": "sessionId",
      "outputs": [
        {
          "internalType": "uint16",
          "name": "",
          "type": "uint16"
        }
      ],
      "stateMutability": "view",
      "type": "function",
      "constant": true
    },
    {
      "inputs": [
        {
          "internalType": "uint256",
          "name": "",
          "type": "uint256"
        }
      ],
      "name": "sessions",
      "outputs": [
        {
          "internalType": "uint256",
          "name": "startTimeSession",
          "type": "uint256"
        },
        {
          "internalType": "uint256",
          "name": "endTimeSession",
          "type": "uint256"
        },
        {
          "internalType": "string",
          "name": "winningProposalName",
          "type": "string"
        },
        {
          "internalType": "address",
          "name": "proposer",
          "type": "address"
        },
        {
          "internalType": "uint16",
          "name": "nbVotes",
          "type": "uint16"
        },
        {
          "internalType": "uint16",
          "name": "totalVotes",
          "type": "uint16"
        }
      ],
      "stateMutability": "view",
      "type": "function",
      "constant": true
    },
    {
      "inputs": [
        {
          "internalType": "address",
          "name": "newOwner",
          "type": "address"
        }
      ],
      "name": "transferOwnership",
      "outputs": [],
      "stateMutability": "nonpayable",
      "type": "function"
    },
    {
      "inputs": [
        {
          "internalType": "address",
          "name": "",
          "type": "address"
        }
      ],
      "name": "voters",
      "outputs": [
        {
          "internalType": "bool",
          "name": "isRegistered",
          "type": "bool"
        },
        {
          "internalType": "bool",
          "name": "hasVoted",
          "type": "bool"
        },
        {
          "internalType": "uint16",
          "name": "votedProposalId",
          "type": "uint16"
        },
        {
          "internalType": "bool",
          "name": "isAbleToPropose",
          "type": "bool"
        },
        {
          "internalType": "bool",
          "name": "hasProposed",
          "type": "bool"
        }
      ],
      "stateMutability": "view",
      "type": "function",
      "constant": true
    },
    {
      "inputs": [
        {
          "internalType": "uint8",
          "name": "newStatus",
          "type": "uint8"
        }
      ],
      "name": "adminChangeStatus",
      "outputs": [],
      "stateMutability": "nonpayable",
      "type": "function"
    },
    {
      "inputs": [
        {
          "internalType": "address",
          "name": "_addressVoter",
          "type": "address"
        },
        {
          "internalType": "bool",
          "name": "_isAbleToPropose",
          "type": "bool"
        }
      ],
      "name": "addVoter",
      "outputs": [],
      "stateMutability": "nonpayable",
      "type": "function"
    },
    {
      "inputs": [
        {
          "internalType": "address",
          "name": "_addressVoter",
          "type": "address"
        }
      ],
      "name": "removeVoter",
      "outputs": [],
      "stateMutability": "nonpayable",
      "type": "function"
    },
    {
      "inputs": [],
      "name": "proposalSessionBegin",
      "outputs": [],
      "stateMutability": "nonpayable",
      "type": "function"
    },
    {
      "inputs": [
        {
          "internalType": "string",
          "name": "_content",
          "type": "string"
        }
      ],
      "name": "addProposal",
      "outputs": [],
      "stateMutability": "nonpayable",
      "type": "function"
    },
    {
      "inputs": [],
      "name": "proposalSessionEnded",
      "outputs": [],
      "stateMutability": "nonpayable",
      "type": "function"
    },
    {
      "inputs": [
        {
          "internalType": "uint16",
          "name": "_proposalId",
          "type": "uint16"
        }
      ],
      "name": "removeProposal",
      "outputs": [],
      "stateMutability": "nonpayable",
      "type": "function"
    },
    {
      "inputs": [],
      "name": "votingSessionStarted",
      "outputs": [],
      "stateMutability": "nonpayable",
      "type": "function"
    },
    {
      "inputs": [
        {
          "internalType": "uint16",
          "name": "_votedProposalId",
          "type": "uint16"
        }
      ],
      "name": "addVote",
      "outputs": [],
      "stateMutability": "nonpayable",
      "type": "function"
    },
    {
      "inputs": [],
      "name": "votingSessionEnded",
      "outputs": [],
      "stateMutability": "nonpayable",
      "type": "function"
    },
    {
      "inputs": [],
      "name": "votesTallied",
      "outputs": [],
      "stateMutability": "nonpayable",
      "type": "function"
    },
    {
      "inputs": [],
      "name": "getWinningProposal",
      "outputs": [
        {
          "internalType": "string",
          "name": "contentProposal",
          "type": "string"
        },
        {
          "internalType": "uint16",
          "name": "nbVotes",
          "type": "uint16"
        },
        {
          "internalType": "uint16",
          "name": "nbVotesTotal",
          "type": "uint16"
        }
      ],
      "stateMutability": "view",
      "type": "function",
      "constant": true
    },
    {
      "inputs": [
        {
          "internalType": "uint16",
          "name": "_sessionId",
          "type": "uint16"
        }
      ],
      "name": "getSessionResult",
      "outputs": [
        {
          "internalType": "string",
          "name": "winningProposalName",
          "type": "string"
        },
        {
          "internalType": "address",
          "name": "proposer",
          "type": "address"
        },
        {
          "internalType": "uint16",
          "name": "nbVotes",
          "type": "uint16"
        },
        {
          "internalType": "uint16",
          "name": "totalVotes",
          "type": "uint16"
        }
      ],
      "stateMutability": "view",
      "type": "function",
      "constant": true
    },
    {
      "inputs": [
        {
          "internalType": "bool",
          "name": "deleteVoters",
          "type": "bool"
        }
      ],
      "name": "restartSession",
      "outputs": [],
      "stateMutability": "nonpayable",
      "type": "function"
    }
  ],
  "bytecode": "0x60806040523480156200001157600080fd5b506000620000246200047360201b60201c565b9050806000806101000a81548173ffffffffffffffffffffffffffffffffffffffff021916908373ffffffffffffffffffffffffffffffffffffffff1602179055508073ffffffffffffffffffffffffffffffffffffffff16600073ffffffffffffffffffffffffffffffffffffffff167f8be0079c531659141344cd1fd0a4f28419497f9722a3daafe3b4186f6b6457e060405160405180910390a3506000600560026101000a81548161ffff021916908361ffff16021790555060036040518060c0016040528060008152602001600081526020016040518060400160405280600281526020017f4e430000000000000000000000000000000000000000000000000000000000008152508152602001600073ffffffffffffffffffffffffffffffffffffffff168152602001600061ffff168152602001600061ffff16815250908060018154018082558091505060019003906000526020600020906004020160009091909190915060008201518160000155602082015181600101556040820151816002019080519060200190620001c29291906200047b565b5060608201518160030160006101000a81548173ffffffffffffffffffffffffffffffffffffffff021916908373ffffffffffffffffffffffffffffffffffffffff16021790555060808201518160030160146101000a81548161ffff021916908361ffff16021790555060a08201518160030160166101000a81548161ffff021916908361ffff16021790555050506000600560046101000a81548160ff021916908360058111156200027257fe5b0217905550600260405180608001604052806040518060400160405280600a81526020017f566f746520626c616e63000000000000000000000000000000000000000000008152508152602001600061ffff168152602001600073ffffffffffffffffffffffffffffffffffffffff1681526020016001151581525090806001815401808255809150506001900390600052602060002090600202016000909190919091506000820151816000019080519060200190620003359291906200047b565b5060208201518160010160006101000a81548161ffff021916908361ffff16021790555060408201518160010160026101000a81548173ffffffffffffffffffffffffffffffffffffffff021916908373ffffffffffffffffffffffffffffffffffffffff16021790555060608201518160010160166101000a81548160ff02191690831515021790555050507f181872669c1e7e862027fe6b33798216fd3ac94d6e292cb2335a10cab89f530d600080600560029054906101000a900461ffff1660405180848152602001806020018473ffffffffffffffffffffffffffffffffffffffff1681526020018361ffff1681526020018281038252600a8152602001807f566f746520626c616e630000000000000000000000000000000000000000000081525060200194505050505060405180910390a162000521565b600033905090565b828054600181600116156101000203166002900490600052602060002090601f016020900481019282601f10620004be57805160ff1916838001178555620004ef565b82800160010185558215620004ef579182015b82811115620004ee578251825591602001919060010190620004d1565b5b509050620004fe919062000502565b5090565b5b808211156200051d57600081600090555060010162000503565b5090565b6140f180620005316000396000f3fe608060405234801561001057600080fd5b506004361061014d5760003560e01c80638da5cb5b116100c3578063ada7415f1161007c578063ada7415f146106e4578063ba6054d1146106ee578063c4f350f3146107cc578063cbf837ea146107fd578063ef8a923514610807578063f2fde38b146108305761014d565b80638da5cb5b1461051b5780639648c9f41461054f578063a1f16d2514610571578063a3ec138d1461057b578063a5134620146105fb578063a878b468146106945761014d565b80635ac70e54116101155780635ac70e5414610379578063715018a614610383578063813a9ee41461038d57806383c4b7a3146103bd578063863b85bf146104a557806386c1ff68146104d75761014d565b8063013cf08b146101525780632b474cbe1461022a5780632fdae3c5146102825780634bb3a0e91461033d57806354c74c471461036f575b600080fd5b61017e6004803603602081101561016857600080fd5b8101908080359060200190929190505050610874565b60405180806020018561ffff1681526020018473ffffffffffffffffffffffffffffffffffffffff1681526020018315158152602001828103825286818151815260200191508051906020019080838360005b838110156101ec5780820151818401526020810190506101d1565b50505050905090810190601f1680156102195780820380516001836020036101000a031916815260200191505b509550505050505060405180910390f35b6102566004803603602081101561024057600080fd5b8101908080359060200190929190505050610984565b604051808273ffffffffffffffffffffffffffffffffffffffff16815260200191505060405180910390f35b61033b6004803603602081101561029857600080fd5b81019080803590602001906401000000008111156102b557600080fd5b8201836020820111156102c757600080fd5b803590602001918460018302840111640100000000831117156102e957600080fd5b91908080601f016020809104026020016040519081016040528093929190818152602001838380828437600081840152601f19601f8201169050808301925050505050505091929192905050506109c0565b005b61036d6004803603602081101561035357600080fd5b81019080803561ffff169060200190929190505050610ee1565b005b6103776111ae565b005b6103816113bf565b005b61038b6115d0565b005b6103bb600480360360208110156103a357600080fd5b8101908080351515906020019092919050505061173d565b005b6103e9600480360360208110156103d357600080fd5b8101908080359060200190929190505050612028565b60405180878152602001868152602001806020018573ffffffffffffffffffffffffffffffffffffffff1681526020018461ffff1681526020018361ffff168152602001828103825286818151815260200191508051906020019080838360005b8381101561046557808201518184015260208101905061044a565b50505050905090810190601f1680156104925780820380516001836020036101000a031916815260200191505b5097505050505050505060405180910390f35b6104d5600480360360208110156104bb57600080fd5b81019080803561ffff169060200190929190505050612145565b005b610519600480360360208110156104ed57600080fd5b81019080803573ffffffffffffffffffffffffffffffffffffffff16906020019092919050505061258b565b005b61052361285e565b604051808273ffffffffffffffffffffffffffffffffffffffff16815260200191505060405180910390f35b610557612887565b604051808261ffff16815260200191505060405180910390f35b61057961289b565b005b6105bd6004803603602081101561059157600080fd5b81019080803573ffffffffffffffffffffffffffffffffffffffff169060200190929190505050612aac565b60405180861515815260200185151581526020018461ffff168152602001831515815260200182151581526020019550505050505060405180910390f35b610603612b24565b60405180806020018461ffff1681526020018361ffff168152602001828103825285818151815260200191508051906020019080838360005b8381101561065757808201518184015260208101905061063c565b50505050905090810190601f1680156106845780820380516001836020036101000a031916815260200191505b5094505050505060405180910390f35b6106e2600480360360408110156106aa57600080fd5b81019080803573ffffffffffffffffffffffffffffffffffffffff169060200190929190803515159060200190929190505050612d1e565b005b6106ec613121565b005b61071e6004803603602081101561070457600080fd5b81019080803561ffff169060200190929190505050613637565b60405180806020018573ffffffffffffffffffffffffffffffffffffffff1681526020018461ffff1681526020018361ffff168152602001828103825286818151815260200191508051906020019080838360005b8381101561078e578082015181840152602081019050610773565b50505050905090810190601f1680156107bb5780820380516001836020036101000a031916815260200191505b509550505050505060405180910390f35b6107fb600480360360208110156107e257600080fd5b81019080803560ff16906020019092919050505061383e565b005b6108056139af565b005b61080f613c14565b6040518082600581111561081f57fe5b815260200191505060405180910390f35b6108726004803603602081101561084657600080fd5b81019080803573ffffffffffffffffffffffffffffffffffffffff169060200190929190505050613c27565b005b6002818154811061088157fe5b9060005260206000209060020201600091509050806000018054600181600116156101000203166002900480601f01602080910402602001604051908101604052809291908181526020018280546001816001161561010002031660029004801561092d5780601f106109025761010080835404028352916020019161092d565b820191906000526020600020905b81548152906001019060200180831161091057829003601f168201915b5050505050908060010160009054906101000a900461ffff16908060010160029054906101000a900473ffffffffffffffffffffffffffffffffffffffff16908060010160169054906101000a900460ff16905084565b6004818154811061099157fe5b906000526020600020016000915054906101000a900473ffffffffffffffffffffffffffffffffffffffff1681565b600160058111156109cd57fe5b600560049054906101000a900460ff1660058111156109e857fe5b14610a3e576040517f08c379a00000000000000000000000000000000000000000000000000000000081526004018080602001828103825260278152602001806140956027913960400191505060405180910390fd5b600160003373ffffffffffffffffffffffffffffffffffffffff1673ffffffffffffffffffffffffffffffffffffffff16815260200190815260200160002060000160009054906101000a900460ff16610b00576040517f08c379a00000000000000000000000000000000000000000000000000000000081526004018080602001828103825260138152602001807f566f746572206e6f74207265676973747265640000000000000000000000000081525060200191505060405180910390fd5b600160003373ffffffffffffffffffffffffffffffffffffffff1673ffffffffffffffffffffffffffffffffffffffff16815260200190815260200160002060000160049054906101000a900460ff16610bc2576040517f08c379a00000000000000000000000000000000000000000000000000000000081526004018080602001828103825260128152602001807f566f746572206e6f742070726f706f736572000000000000000000000000000081525060200191505060405180910390fd5b600160003373ffffffffffffffffffffffffffffffffffffffff1673ffffffffffffffffffffffffffffffffffffffff16815260200190815260200160002060000160059054906101000a900460ff1615610c85576040517f08c379a000000000000000000000000000000000000000000000000000000000815260040180806020018281038252601a8152602001807f566f7465722068617320616c72656164792070726f706f73656400000000000081525060200191505060405180910390fd5b60026040518060800160405280838152602001600061ffff1681526020013373ffffffffffffffffffffffffffffffffffffffff1681526020016001151581525090806001815401808255809150506001900390600052602060002090600202016000909190919091506000820151816000019080519060200190610d0b929190613e21565b5060208201518160010160006101000a81548161ffff021916908361ffff16021790555060408201518160010160026101000a81548173ffffffffffffffffffffffffffffffffffffffff021916908373ffffffffffffffffffffffffffffffffffffffff16021790555060608201518160010160166101000a81548160ff021916908315150217905550505060018060003373ffffffffffffffffffffffffffffffffffffffff1673ffffffffffffffffffffffffffffffffffffffff16815260200190815260200160002060000160056101000a81548160ff021916908315150217905550600060016002805490500390507f181872669c1e7e862027fe6b33798216fd3ac94d6e292cb2335a10cab89f530d818333600560029054906101000a900461ffff1660405180858152602001806020018473ffffffffffffffffffffffffffffffffffffffff1681526020018361ffff168152602001828103825285818151815260200191508051906020019080838360005b83811015610ea0578082015181840152602081019050610e85565b50505050905090810190601f168015610ecd5780820380516001836020036101000a031916815260200191505b509550505050505060405180910390a15050565b610ee9613e19565b73ffffffffffffffffffffffffffffffffffffffff16610f0761285e565b73ffffffffffffffffffffffffffffffffffffffff1614610f90576040517f08c379a00000000000000000000000000000000000000000000000000000000081526004018080602001828103825260208152602001807f4f776e61626c653a2063616c6c6572206973206e6f7420746865206f776e657281525060200191505060405180910390fd5b60026005811115610f9d57fe5b600560049054906101000a900460ff166005811115610fb857fe5b1461100e576040517f08c379a00000000000000000000000000000000000000000000000000000000081526004018080602001828103825260258152602001806140706025913960400191505060405180910390fd5b600060028261ffff168154811061102157fe5b906000526020600020906002020160010160166101000a81548160ff0219169083151502179055507f25e1e3dfd11355450e0a12817a9b12ea40dede2b507470ce46be25ada6bb8f5d8160028361ffff168154811061107c57fe5b906000526020600020906002020160000160028461ffff168154811061109e57fe5b906000526020600020906002020160010160029054906101000a900473ffffffffffffffffffffffffffffffffffffffff16600560029054906101000a900461ffff16604051808561ffff168152602001806020018473ffffffffffffffffffffffffffffffffffffffff1681526020018361ffff16815260200182810382528581815460018160011615610100020316600290048152602001915080546001816001161561010002031660029004801561119a5780601f1061116f5761010080835404028352916020019161119a565b820191906000526020600020905b81548152906001019060200180831161117d57829003601f168201915b50509550505050505060405180910390a150565b6111b6613e19565b73ffffffffffffffffffffffffffffffffffffffff166111d461285e565b73ffffffffffffffffffffffffffffffffffffffff161461125d576040517f08c379a00000000000000000000000000000000000000000000000000000000081526004018080602001828103825260208152602001807f4f776e61626c653a2063616c6c6572206973206e6f7420746865206f776e657281525060200191505060405180910390fd5b6002600581111561126a57fe5b600560049054906101000a900460ff16600581111561128557fe5b146112db576040517f08c379a00000000000000000000000000000000000000000000000000000000081526004018080602001828103825260258152602001806140706025913960400191505060405180910390fd5b6003600560046101000a81548160ff021916908360058111156112fa57fe5b02179055507f1d520e327caba26c444617e7d36e7900df66f5e7cf7507e5ec5ffcda9d07e33560026003600560029054906101000a900461ffff166040518084600581111561134557fe5b815260200183600581111561135657fe5b81526020018261ffff168152602001935050505060405180910390a17fa9726274939b9e79c18898615eabbb9d02e7441f167819086bab785ae924de93600560029054906101000a900461ffff16604051808261ffff16815260200191505060405180910390a1565b6113c7613e19565b73ffffffffffffffffffffffffffffffffffffffff166113e561285e565b73ffffffffffffffffffffffffffffffffffffffff161461146e576040517f08c379a00000000000000000000000000000000000000000000000000000000081526004018080602001828103825260208152602001807f4f776e61626c653a2063616c6c6572206973206e6f7420746865206f776e657281525060200191505060405180910390fd5b6001600581111561147b57fe5b600560049054906101000a900460ff16600581111561149657fe5b146114ec576040517f08c379a00000000000000000000000000000000000000000000000000000000081526004018080602001828103825260278152602001806140956027913960400191505060405180910390fd5b6002600560046101000a81548160ff0219169083600581111561150b57fe5b02179055507f1d520e327caba26c444617e7d36e7900df66f5e7cf7507e5ec5ffcda9d07e33560016002600560029054906101000a900461ffff166040518084600581111561155657fe5b815260200183600581111561156757fe5b81526020018261ffff168152602001935050505060405180910390a17f949930d45cdfcfaf90b4f9f08cf19428d80125bf2a76743bc2f439a60417eadf600560029054906101000a900461ffff16604051808261ffff16815260200191505060405180910390a1565b6115d8613e19565b73ffffffffffffffffffffffffffffffffffffffff166115f661285e565b73ffffffffffffffffffffffffffffffffffffffff161461167f576040517f08c379a00000000000000000000000000000000000000000000000000000000081526004018080602001828103825260208152602001807f4f776e61626c653a2063616c6c6572206973206e6f7420746865206f776e657281525060200191505060405180910390fd5b600073ffffffffffffffffffffffffffffffffffffffff1660008054906101000a900473ffffffffffffffffffffffffffffffffffffffff1673ffffffffffffffffffffffffffffffffffffffff167f8be0079c531659141344cd1fd0a4f28419497f9722a3daafe3b4186f6b6457e060405160405180910390a360008060006101000a81548173ffffffffffffffffffffffffffffffffffffffff021916908373ffffffffffffffffffffffffffffffffffffffff160217905550565b60058081111561174957fe5b600560049054906101000a900460ff16600581111561176457fe5b146117d7576040517f08c379a00000000000000000000000000000000000000000000000000000000081526004018080602001828103825260148152602001807f54616c6c696564206e6f742066696e697368656400000000000000000000000081525060200191505060405180910390fd5b600260006117e59190613ea1565b80156119025760005b6004805490508161ffff1610156118ee576001600060048361ffff168154811061181457fe5b9060005260206000200160009054906101000a900473ffffffffffffffffffffffffffffffffffffffff1673ffffffffffffffffffffffffffffffffffffffff1673ffffffffffffffffffffffffffffffffffffffff168152602001908152602001600020600080820160006101000a81549060ff02191690556000820160016101000a81549060ff02191690556000820160026101000a81549061ffff02191690556000820160046101000a81549060ff02191690556000820160056101000a81549060ff0219169055505080806001019150506117ee565b50600460006118fd9190613ec5565b611c1d565b60005b6004805490508161ffff161015611c1b5760006001600060048461ffff168154811061192d57fe5b9060005260206000200160009054906101000a900473ffffffffffffffffffffffffffffffffffffffff1673ffffffffffffffffffffffffffffffffffffffff1673ffffffffffffffffffffffffffffffffffffffff16815260200190815260200160002060000160016101000a81548160ff02191690831515021790555060006001600060048461ffff16815481106119c357fe5b9060005260206000200160009054906101000a900473ffffffffffffffffffffffffffffffffffffffff1673ffffffffffffffffffffffffffffffffffffffff1673ffffffffffffffffffffffffffffffffffffffff16815260200190815260200160002060000160056101000a81548160ff0219169083151502179055506001600060048361ffff1681548110611a5757fe5b9060005260206000200160009054906101000a900473ffffffffffffffffffffffffffffffffffffffff1673ffffffffffffffffffffffffffffffffffffffff1673ffffffffffffffffffffffffffffffffffffffff16815260200190815260200160002060000160009054906101000a900460ff1615611c0e577f6a766f9ab75ee5af82c021b61a6c6854921494e4c22b999a18c4232900f71d2160048261ffff1681548110611b0457fe5b9060005260206000200160009054906101000a900473ffffffffffffffffffffffffffffffffffffffff166001600060048561ffff1681548110611b4457fe5b9060005260206000200160009054906101000a900473ffffffffffffffffffffffffffffffffffffffff1673ffffffffffffffffffffffffffffffffffffffff1673ffffffffffffffffffffffffffffffffffffffff16815260200190815260200160002060000160049054906101000a900460ff166001600560029054906101000a900461ffff1601604051808473ffffffffffffffffffffffffffffffffffffffff16815260200183151581526020018261ffff168152602001935050505060405180910390a15b8080600101915050611905565b505b6005600281819054906101000a900461ffff168092919060010191906101000a81548161ffff021916908361ffff1602179055505060036040518060c0016040528060008152602001600081526020016040518060400160405280600281526020017f4e430000000000000000000000000000000000000000000000000000000000008152508152602001600073ffffffffffffffffffffffffffffffffffffffff168152602001600061ffff168152602001600061ffff16815250908060018154018082558091505060019003906000526020600020906004020160009091909190915060008201518160000155602082015181600101556040820151816002019080519060200190611d32929190613e21565b5060608201518160030160006101000a81548173ffffffffffffffffffffffffffffffffffffffff021916908373ffffffffffffffffffffffffffffffffffffffff16021790555060808201518160030160146101000a81548161ffff021916908361ffff16021790555060a08201518160030160166101000a81548161ffff021916908361ffff16021790555050506000600560046101000a81548160ff02191690836005811115611de157fe5b0217905550600260405180608001604052806040518060400160405280600a81526020017f566f746520626c616e63000000000000000000000000000000000000000000008152508152602001600061ffff168152602001600073ffffffffffffffffffffffffffffffffffffffff1681526020016001151581525090806001815401808255809150506001900390600052602060002090600202016000909190919091506000820151816000019080519060200190611ea2929190613e21565b5060208201518160010160006101000a81548161ffff021916908361ffff16021790555060408201518160010160026101000a81548173ffffffffffffffffffffffffffffffffffffffff021916908373ffffffffffffffffffffffffffffffffffffffff16021790555060608201518160010160166101000a81548160ff02191690831515021790555050507fd17d644375ea482b2c4b02c6bd3072fd8e5414b01d2b0c94ff456448fc027846600560029054906101000a900461ffff16604051808261ffff16815260200191505060405180910390a17f181872669c1e7e862027fe6b33798216fd3ac94d6e292cb2335a10cab89f530d600080600560029054906101000a900461ffff1660405180848152602001806020018473ffffffffffffffffffffffffffffffffffffffff1681526020018361ffff1681526020018281038252600a8152602001807f566f746520626c616e630000000000000000000000000000000000000000000081525060200194505050505060405180910390a150565b6003818154811061203557fe5b9060005260206000209060040201600091509050806000015490806001015490806002018054600181600116156101000203166002900480601f0160208091040260200160405190810160405280929190818152602001828054600181600116156101000203166002900480156120ed5780601f106120c2576101008083540402835291602001916120ed565b820191906000526020600020905b8154815290600101906020018083116120d057829003601f168201915b5050505050908060030160009054906101000a900473ffffffffffffffffffffffffffffffffffffffff16908060030160149054906101000a900461ffff16908060030160169054906101000a900461ffff16905086565b600160003373ffffffffffffffffffffffffffffffffffffffff1673ffffffffffffffffffffffffffffffffffffffff16815260200190815260200160002060000160009054906101000a900460ff16612207576040517f08c379a00000000000000000000000000000000000000000000000000000000081526004018080602001828103825260128152602001807f566f7465722063616e206e6f7420766f7465000000000000000000000000000081525060200191505060405180910390fd5b6003600581111561221457fe5b600560049054906101000a900460ff16600581111561222f57fe5b146122a2576040517f08c379a00000000000000000000000000000000000000000000000000000000081526004018080602001828103825260178152602001807f4974206973206e6f742074696d6520746f20766f74652100000000000000000081525060200191505060405180910390fd5b600160003373ffffffffffffffffffffffffffffffffffffffff1673ffffffffffffffffffffffffffffffffffffffff16815260200190815260200160002060000160019054906101000a900460ff1615612365576040517f08c379a00000000000000000000000000000000000000000000000000000000081526004018080602001828103825260168152602001807f566f7465722068617320616c726561647920766f74650000000000000000000081525060200191505060405180910390fd5b60028161ffff168154811061237657fe5b906000526020600020906002020160010160169054906101000a900460ff16612407576040517f08c379a00000000000000000000000000000000000000000000000000000000081526004018080602001828103825260148152602001807f50726f706f736974696f6e20696e61637469766500000000000000000000000081525060200191505060405180910390fd5b80600160003373ffffffffffffffffffffffffffffffffffffffff1673ffffffffffffffffffffffffffffffffffffffff16815260200190815260200160002060000160026101000a81548161ffff021916908361ffff16021790555060018060003373ffffffffffffffffffffffffffffffffffffffff1673ffffffffffffffffffffffffffffffffffffffff16815260200190815260200160002060000160016101000a81548160ff02191690831515021790555060028161ffff16815481106124cf57fe5b9060005260206000209060020201600101600081819054906101000a900461ffff168092919060010191906101000a81548161ffff021916908361ffff160217905550507fea66f58e474bc09f580000e81f31b334d171db387d0c6098ba47bd897741679b3382600560029054906101000a900461ffff16604051808473ffffffffffffffffffffffffffffffffffffffff1681526020018361ffff1681526020018261ffff168152602001935050505060405180910390a150565b612593613e19565b73ffffffffffffffffffffffffffffffffffffffff166125b161285e565b73ffffffffffffffffffffffffffffffffffffffff161461263a576040517f08c379a00000000000000000000000000000000000000000000000000000000081526004018080602001828103825260208152602001807f4f776e61626c653a2063616c6c6572206973206e6f7420746865206f776e657281525060200191505060405180910390fd5b6000600581111561264757fe5b600560049054906101000a900460ff16600581111561266257fe5b146126d5576040517f08c379a000000000000000000000000000000000000000000000000000000000815260040180806020018281038252601c8152602001807f4e6f74205265676973746572696e67566f74657273205374617475730000000081525060200191505060405180910390fd5b600160008273ffffffffffffffffffffffffffffffffffffffff1673ffffffffffffffffffffffffffffffffffffffff16815260200190815260200160002060000160009054906101000a900460ff16612797576040517f08c379a00000000000000000000000000000000000000000000000000000000081526004018080602001828103825260138152602001807f566f746572206e6f74207265676973747265640000000000000000000000000081525060200191505060405180910390fd5b6000600160008373ffffffffffffffffffffffffffffffffffffffff1673ffffffffffffffffffffffffffffffffffffffff16815260200190815260200160002060000160006101000a81548160ff0219169083151502179055507f45f4ad77c4b8ab2be522a8c7c6907efbadd226f290bb6ce51ea3a8b0ac96e99b81600560029054906101000a900461ffff16604051808373ffffffffffffffffffffffffffffffffffffffff1681526020018261ffff1681526020019250505060405180910390a150565b60008060009054906101000a900473ffffffffffffffffffffffffffffffffffffffff16905090565b600560029054906101000a900461ffff1681565b6128a3613e19565b73ffffffffffffffffffffffffffffffffffffffff166128c161285e565b73ffffffffffffffffffffffffffffffffffffffff161461294a576040517f08c379a00000000000000000000000000000000000000000000000000000000081526004018080602001828103825260208152602001807f4f776e61626c653a2063616c6c6572206973206e6f7420746865206f776e657281525060200191505060405180910390fd5b6003600581111561295757fe5b600560049054906101000a900460ff16600581111561297257fe5b146129c8576040517f08c379a00000000000000000000000000000000000000000000000000000000081526004018080602001828103825260258152602001806140706025913960400191505060405180910390fd5b6004600560046101000a81548160ff021916908360058111156129e757fe5b02179055507f1d520e327caba26c444617e7d36e7900df66f5e7cf7507e5ec5ffcda9d07e33560036004600560029054906101000a900461ffff1660405180846005811115612a3257fe5b8152602001836005811115612a4357fe5b81526020018261ffff168152602001935050505060405180910390a17f9956bd7b1ae344fbb54dbd02a85e2283bec6bf75f7fccbaa9c2392a715e71e49600560029054906101000a900461ffff16604051808261ffff16815260200191505060405180910390a1565b60016020528060005260406000206000915090508060000160009054906101000a900460ff16908060000160019054906101000a900460ff16908060000160029054906101000a900461ffff16908060000160049054906101000a900460ff16908060000160059054906101000a900460ff16905085565b6060600080600580811115612b3557fe5b600560049054906101000a900460ff166005811115612b5057fe5b14612bc3576040517f08c379a00000000000000000000000000000000000000000000000000000000081526004018080602001828103825260148152602001807f54616c6c696564206e6f742066696e697368656400000000000000000000000081525060200191505060405180910390fd5b6002600560009054906101000a900461ffff1661ffff1681548110612be457fe5b90600052602060002090600202016000016002600560009054906101000a900461ffff1661ffff1681548110612c1657fe5b906000526020600020906002020160010160009054906101000a900461ffff166003600560029054906101000a900461ffff1661ffff1681548110612c5757fe5b906000526020600020906004020160030160169054906101000a900461ffff16828054600181600116156101000203166002900480601f016020809104026020016040519081016040528092919081815260200182805460018160011615610100020316600290048015612d0c5780601f10612ce157610100808354040283529160200191612d0c565b820191906000526020600020905b815481529060010190602001808311612cef57829003601f168201915b50505050509250925092509250909192565b612d26613e19565b73ffffffffffffffffffffffffffffffffffffffff16612d4461285e565b73ffffffffffffffffffffffffffffffffffffffff1614612dcd576040517f08c379a00000000000000000000000000000000000000000000000000000000081526004018080602001828103825260208152602001807f4f776e61626c653a2063616c6c6572206973206e6f7420746865206f776e657281525060200191505060405180910390fd5b60006005811115612dda57fe5b600560049054906101000a900460ff166005811115612df557fe5b14612e68576040517f08c379a000000000000000000000000000000000000000000000000000000000815260040180806020018281038252601c8152602001807f4e6f74205265676973746572696e67566f74657273205374617475730000000081525060200191505060405180910390fd5b600160008373ffffffffffffffffffffffffffffffffffffffff1673ffffffffffffffffffffffffffffffffffffffff16815260200190815260200160002060000160009054906101000a900460ff1615612f2b576040517f08c379a00000000000000000000000000000000000000000000000000000000081526004018080602001828103825260178152602001807f566f74657220616c72656164792072656769737472656400000000000000000081525060200191505060405180910390fd5b6040518060a00160405280600115158152602001600015158152602001600061ffff168152602001821515815260200160001515815250600160008473ffffffffffffffffffffffffffffffffffffffff1673ffffffffffffffffffffffffffffffffffffffff16815260200190815260200160002060008201518160000160006101000a81548160ff02191690831515021790555060208201518160000160016101000a81548160ff02191690831515021790555060408201518160000160026101000a81548161ffff021916908361ffff16021790555060608201518160000160046101000a81548160ff02191690831515021790555060808201518160000160056101000a81548160ff0219169083151502179055509050506004829080600181540180825580915050600190039060005260206000200160009091909190916101000a81548173ffffffffffffffffffffffffffffffffffffffff021916908373ffffffffffffffffffffffffffffffffffffffff1602179055507f6a766f9ab75ee5af82c021b61a6c6854921494e4c22b999a18c4232900f71d218282600560029054906101000a900461ffff16604051808473ffffffffffffffffffffffffffffffffffffffff16815260200183151581526020018261ffff168152602001935050505060405180910390a15050565b613129613e19565b73ffffffffffffffffffffffffffffffffffffffff1661314761285e565b73ffffffffffffffffffffffffffffffffffffffff16146131d0576040517f08c379a00000000000000000000000000000000000000000000000000000000081526004018080602001828103825260208152602001807f4f776e61626c653a2063616c6c6572206973206e6f7420746865206f776e657281525060200191505060405180910390fd5b600460058111156131dd57fe5b600560049054906101000a900460ff1660058111156131f857fe5b1461326b576040517f08c379a00000000000000000000000000000000000000000000000000000000081526004018080602001828103825260188152602001807f53657373696f6e206973207374696c6c206f6e676f696e67000000000000000081525060200191505060405180910390fd5b60058060046101000a81548160ff0219169083600581111561328957fe5b02179055506000806000805b6002805490508161ffff16101561335f578261ffff1660028261ffff16815481106132bc57fe5b906000526020600020906002020160010160009054906101000a900461ffff1661ffff16111561331d5780935060028161ffff16815481106132fa57fe5b906000526020600020906002020160010160009054906101000a900461ffff1692505b60028161ffff168154811061332e57fe5b906000526020600020906002020160010160009054906101000a900461ffff16820191508080600101915050613295565b5082600560006101000a81548161ffff021916908361ffff160217905550426003600560029054906101000a900461ffff1661ffff168154811061339f57fe5b90600052602060002090600402016001018190555060028361ffff16815481106133c557fe5b90600052602060002090600202016000016003600560029054906101000a900461ffff1661ffff16815481106133f757fe5b90600052602060002090600402016002019080546001816001161561010002031660029004613427929190613ee6565b5060028361ffff168154811061343957fe5b906000526020600020906002020160010160029054906101000a900473ffffffffffffffffffffffffffffffffffffffff166003600560029054906101000a900461ffff1661ffff168154811061348c57fe5b906000526020600020906004020160030160006101000a81548173ffffffffffffffffffffffffffffffffffffffff021916908373ffffffffffffffffffffffffffffffffffffffff160217905550816003600560029054906101000a900461ffff1661ffff16815481106134fd57fe5b906000526020600020906004020160030160146101000a81548161ffff021916908361ffff160217905550806003600560029054906101000a900461ffff1661ffff168154811061354a57fe5b906000526020600020906004020160030160166101000a81548161ffff021916908361ffff1602179055507f1d520e327caba26c444617e7d36e7900df66f5e7cf7507e5ec5ffcda9d07e335600460058060029054906101000a900461ffff16604051808460058111156135ba57fe5b81526020018360058111156135cb57fe5b81526020018261ffff168152602001935050505060405180910390a17fd50c1fd4ce30d65682cf92d04facc6fcd5e23d20a9af6d037faf9c7ac945ade6600560029054906101000a900461ffff16604051808261ffff16815260200191505060405180910390a1505050565b606060008060008461ffff16600560029054906101000a900461ffff1661ffff1610156136cc576040517f08c379a00000000000000000000000000000000000000000000000000000000081526004018080602001828103825260118152602001807f53657373696f6e206e6f7420657869737400000000000000000000000000000081525060200191505060405180910390fd5b60038561ffff16815481106136dd57fe5b906000526020600020906004020160020160038661ffff16815481106136ff57fe5b906000526020600020906004020160030160009054906101000a900473ffffffffffffffffffffffffffffffffffffffff1660038761ffff168154811061374257fe5b906000526020600020906004020160030160149054906101000a900461ffff1660038861ffff168154811061377357fe5b906000526020600020906004020160030160169054906101000a900461ffff16838054600181600116156101000203166002900480601f0160208091040260200160405190810160405280929190818152602001828054600181600116156101000203166002900480156138285780601f106137fd57610100808354040283529160200191613828565b820191906000526020600020905b81548152906001019060200180831161380b57829003601f168201915b5050505050935093509350935093509193509193565b613846613e19565b73ffffffffffffffffffffffffffffffffffffffff1661386461285e565b73ffffffffffffffffffffffffffffffffffffffff16146138ed576040517f08c379a00000000000000000000000000000000000000000000000000000000081526004018080602001828103825260208152602001807f4f776e61626c653a2063616c6c6572206973206e6f7420746865206f776e657281525060200191505060405180910390fd5b7f1d520e327caba26c444617e7d36e7900df66f5e7cf7507e5ec5ffcda9d07e335600560049054906101000a900460ff168260ff16600581111561392d57fe5b600560029054906101000a900461ffff166040518084600581111561394e57fe5b815260200183600581111561395f57fe5b81526020018261ffff168152602001935050505060405180910390a18060ff16600581111561398a57fe5b600560046101000a81548160ff021916908360058111156139a757fe5b021790555050565b6139b7613e19565b73ffffffffffffffffffffffffffffffffffffffff166139d561285e565b73ffffffffffffffffffffffffffffffffffffffff1614613a5e576040517f08c379a00000000000000000000000000000000000000000000000000000000081526004018080602001828103825260208152602001807f4f776e61626c653a2063616c6c6572206973206e6f7420746865206f776e657281525060200191505060405180910390fd5b60006005811115613a6b57fe5b600560049054906101000a900460ff166005811115613a8657fe5b14613af9576040517f08c379a000000000000000000000000000000000000000000000000000000000815260040180806020018281038252601c8152602001807f4e6f74205265676973746572696e67566f74657273205374617475730000000081525060200191505060405180910390fd5b426003600560029054906101000a900461ffff1661ffff1681548110613b1b57fe5b9060005260206000209060040201600001819055506001600560046101000a81548160ff02191690836005811115613b4f57fe5b02179055507f1d520e327caba26c444617e7d36e7900df66f5e7cf7507e5ec5ffcda9d07e33560006001600560029054906101000a900461ffff1660405180846005811115613b9a57fe5b8152602001836005811115613bab57fe5b81526020018261ffff168152602001935050505060405180910390a17fb751da72ce1967bb446b81cfd2c497796d3735d046c5448a569a02ee820f9bb6600560029054906101000a900461ffff16604051808261ffff16815260200191505060405180910390a1565b600560049054906101000a900460ff1681565b613c2f613e19565b73ffffffffffffffffffffffffffffffffffffffff16613c4d61285e565b73ffffffffffffffffffffffffffffffffffffffff1614613cd6576040517f08c379a00000000000000000000000000000000000000000000000000000000081526004018080602001828103825260208152602001807f4f776e61626c653a2063616c6c6572206973206e6f7420746865206f776e657281525060200191505060405180910390fd5b600073ffffffffffffffffffffffffffffffffffffffff168173ffffffffffffffffffffffffffffffffffffffff161415613d5c576040517f08c379a000000000000000000000000000000000000000000000000000000000815260040180806020018281038252602681526020018061404a6026913960400191505060405180910390fd5b8073ffffffffffffffffffffffffffffffffffffffff1660008054906101000a900473ffffffffffffffffffffffffffffffffffffffff1673ffffffffffffffffffffffffffffffffffffffff167f8be0079c531659141344cd1fd0a4f28419497f9722a3daafe3b4186f6b6457e060405160405180910390a3806000806101000a81548173ffffffffffffffffffffffffffffffffffffffff021916908373ffffffffffffffffffffffffffffffffffffffff16021790555050565b600033905090565b828054600181600116156101000203166002900490600052602060002090601f016020900481019282601f10613e6257805160ff1916838001178555613e90565b82800160010185558215613e90579182015b82811115613e8f578251825591602001919060010190613e74565b5b509050613e9d9190613f6d565b5090565b5080546000825560020290600052602060002090810190613ec29190613f8a565b50565b5080546000825590600052602060002090810190613ee39190613f6d565b50565b828054600181600116156101000203166002900490600052602060002090601f016020900481019282601f10613f1f5780548555613f5c565b82800160010185558215613f5c57600052602060002091601f016020900482015b82811115613f5b578254825591600101919060010190613f40565b5b509050613f699190613f6d565b5090565b5b80821115613f86576000816000905550600101613f6e565b5090565b5b80821115613ffd5760008082016000613fa49190614001565b6001820160006101000a81549061ffff02191690556001820160026101000a81549073ffffffffffffffffffffffffffffffffffffffff02191690556001820160166101000a81549060ff021916905550600201613f8b565b5090565b50805460018160011615610100020316600290046000825580601f106140275750614046565b601f0160209004906000526020600020908101906140459190613f6d565b5b5056fe4f776e61626c653a206e6577206f776e657220697320746865207a65726f20616464726573734e6f742050726f706f73616c73526567697374726174696f6e456e646564205374617475734e6f742050726f706f73616c73526567697374726174696f6e5374617274656420537461747573a2646970667358221220e554636d6fe7cf47536f68d77937adba23b8425bcc7ac69e21f975282f6dcd5664736f6c634300060c0033",
  "immutableReferences": {},
  "source": "// SPDX-License-Identifier:  GPL-3.0\r\npragma solidity >=0.4.21 <=0.7.4;\r\n \r\n//import \"https://github.com/OpenZeppelin/openzeppelin-contracts/blob/master/contracts/access/Ownable.sol\";\r\nimport \"@openzeppelin/contracts/access/Ownable.sol\";\r\n\r\n/**\r\n * @title Voting\r\n * @dev Organise Voters registration, proposals registration, votes talling, resetting session\r\n * @author Hlne Bunel\r\n * @author Edouard Vahanian\r\n * @author Daniel Villa Monteiro\r\n * @notice We use uint16 size to index propoesals, voters and sessions (limit 65 536)\r\n */\r\n\r\ncontract Voting is Ownable {\r\n    \r\n    /**\r\n     * @dev Structure of Voter\r\n     * @notice Feature_V2 : isAbleToPropose and hasProposed\r\n     */\r\n    struct Voter {\r\n        bool isRegistered;\r\n        bool hasVoted; \r\n        uint16 votedProposalId;\r\n        bool isAbleToPropose; \r\n        bool hasProposed; \r\n    }\r\n    \r\n     /**\r\n     * @dev Structure of Voter\r\n     * @notice Feature_V2 : author and isActive\r\n     */\r\n    struct Proposal {\r\n        string description;\r\n        uint16 voteCount;\r\n        address author; \r\n        bool isActive;   \r\n    }\r\n    \r\n    /**\r\n     * @dev Structure of Session\r\n     * @notice Feature_V2\r\n     */\r\n    struct Session {\r\n        uint startTimeSession;  \r\n        uint endTimeSession;  \r\n        string winningProposalName;    \r\n        address proposer;\r\n        uint16 nbVotes;\r\n        uint16 totalVotes;\r\n    }\r\n\r\n\r\n    /**\r\n     * @dev WorkflowStatus\r\n     * @notice 6 states \r\n     */\r\n    enum WorkflowStatus {\r\n        RegisteringVoters,\r\n        ProposalsRegistrationStarted,\r\n        ProposalsRegistrationEnded,\r\n        VotingSessionStarted,\r\n        VotingSessionEnded,\r\n        VotesTallied\r\n    }\r\n \r\n    event VoterRegistered(address voterAddress, bool isAbleToPropose, uint sessionId);\r\n    event VoterUnRegistered(address voterAddress, uint sessionId);                                              // Feature_V2     \r\n    event ProposalsRegistrationStarted(uint sessionId);\r\n    event ProposalsRegistrationEnded(uint sessionId);\r\n    event ProposalRegistered(uint proposalId, string proposal, address owner, uint sessionId);\r\n    event ProposalUnRegistered(uint proposalId, string proposal, address owner, uint sessionId);                                                // Feature_V2    \r\n    event VotingSessionStarted(uint sessionId);\r\n    event VotingSessionEnded(uint sessionId);\r\n    event Voted (address voter, uint proposalId, uint sessionId);\r\n    event VotesTallied(uint sessionId);\r\n    event WorkflowStatusChange(WorkflowStatus previousStatus, WorkflowStatus newStatus, uint sessionId);\r\n    event SessionRestart(uint sessionId);\r\n    \r\n    mapping(address => Voter) public voters;\r\n    Proposal[] public proposals;\r\n    Session[] public sessions;\r\n    address[] public addressToSave;\r\n    uint16 proposalWinningId;\r\n    uint16 public sessionId;    \r\n    \r\n    WorkflowStatus public currentStatus;\r\n\r\n    constructor () public{\r\n        sessionId=0;\r\n        sessions.push(Session(0,0,'NC',address(0),0,0));\r\n        currentStatus = WorkflowStatus.RegisteringVoters;\r\n        proposals.push(Proposal('Vote blanc', 0, address(0), true));\r\n        emit ProposalRegistered(0, 'Vote blanc', address(0),sessionId);            \r\n    }\r\n    \r\n    \r\n    /**\r\n     * @dev Force change of status\r\n     * @param newStatus forced\r\n     */\r\n    function adminChangeStatus(uint8 newStatus) external onlyOwner{\r\n        // TODO Clean after testing\r\n        emit WorkflowStatusChange(WorkflowStatus(currentStatus), WorkflowStatus(newStatus), sessionId);\r\n        currentStatus = WorkflowStatus(newStatus);\r\n    }\r\n    \r\n    \r\n    /**\r\n     * @dev Add a voter\r\n     * @param _addressVoter address of new voter\r\n     * @param _isAbleToPropose is voter abble to propose proposals\r\n     */\r\n    function addVoter(address _addressVoter, bool _isAbleToPropose) external onlyOwner{\r\n        require(currentStatus == WorkflowStatus.RegisteringVoters, \"Not RegisteringVoters Status\");        \r\n        require(!voters[_addressVoter].isRegistered, \"Voter already registred\");\r\n\r\n        voters[_addressVoter] = Voter(true, false, 0, _isAbleToPropose, false);\r\n        addressToSave.push(_addressVoter);\r\n\r\n        emit VoterRegistered(_addressVoter, _isAbleToPropose, sessionId);\r\n    }\r\n    \r\n    /**\r\n     * @dev Remove a voter\r\n     * @param _addressVoter address of new voter\r\n     */\r\n    function removeVoter(address _addressVoter) external onlyOwner{\r\n        require(currentStatus == WorkflowStatus.RegisteringVoters, \"Not RegisteringVoters Status\");        \r\n        require(voters[_addressVoter].isRegistered, \"Voter not registred\");\r\n        \r\n        voters[_addressVoter].isRegistered = false;\r\n\r\n        emit VoterUnRegistered(_addressVoter, sessionId);\r\n    }\r\n\r\n    /**\r\n     * @dev Change status to ProposalsRegistrationStarted\r\n     */\r\n    function proposalSessionBegin() external onlyOwner{\r\n        require(currentStatus == WorkflowStatus.RegisteringVoters, \"Not RegisteringVoters Status\");\r\n        \r\n        sessions[sessionId].startTimeSession = block.timestamp;\r\n        \r\n        currentStatus = WorkflowStatus.ProposalsRegistrationStarted;\r\n\r\n        emit WorkflowStatusChange(WorkflowStatus.RegisteringVoters, WorkflowStatus.ProposalsRegistrationStarted, sessionId);\r\n        emit ProposalsRegistrationStarted(sessionId);       \r\n    }\r\n\r\n    /**\r\n     * @dev Add a proposal\r\n     * @param _content content of proposal\r\n     */\r\n    function addProposal(string memory _content) external {\r\n        require(currentStatus == WorkflowStatus.ProposalsRegistrationStarted, \"Not ProposalsRegistrationStarted Status\");\r\n        require(voters[msg.sender].isRegistered, \"Voter not registred\");\r\n        require(voters[msg.sender].isAbleToPropose, \"Voter not proposer\");\r\n        require(!voters[msg.sender].hasProposed, \"Voter has already proposed\");\r\n\r\n        proposals.push(Proposal(_content, 0, msg.sender, true));\r\n        voters[msg.sender].hasProposed = true;\r\n        \r\n        uint proposalId = proposals.length-1;\r\n\r\n        emit ProposalRegistered(proposalId, _content, msg.sender, sessionId);\r\n    }    \r\n\r\n    /**\r\n     * @dev Change status to ProposalsRegistrationEnded\r\n     */\r\n    function proposalSessionEnded() external onlyOwner{\r\n        require(currentStatus == WorkflowStatus.ProposalsRegistrationStarted, \"Not ProposalsRegistrationStarted Status\");\r\n        \r\n        currentStatus = WorkflowStatus.ProposalsRegistrationEnded;\r\n        \r\n        emit WorkflowStatusChange(WorkflowStatus.ProposalsRegistrationStarted, WorkflowStatus.ProposalsRegistrationEnded, sessionId);\r\n        emit ProposalsRegistrationEnded(sessionId);       \r\n    }\r\n    \r\n    /**\r\n     * @dev Remove a proposal\r\n     * @param _proposalId index of proposal to deactivate\r\n     * @notice Feature_V2\r\n     */\r\n    function removeProposal(uint16 _proposalId) external onlyOwner{\r\n        require(currentStatus == WorkflowStatus.ProposalsRegistrationEnded, \"Not ProposalsRegistrationEnded Status\");\r\n      \r\n        proposals[_proposalId].isActive = false;\r\n\r\n        emit ProposalUnRegistered(_proposalId, proposals[_proposalId].description, proposals[_proposalId].author, sessionId);\r\n    }        \r\n    \r\n    /**\r\n     * @dev Change status to VotingSessionStarted\r\n     */\r\n    function votingSessionStarted() external onlyOwner{\r\n        require(currentStatus == WorkflowStatus.ProposalsRegistrationEnded, \"Not ProposalsRegistrationEnded Status\");\r\n        \r\n        currentStatus = WorkflowStatus.VotingSessionStarted;\r\n        \r\n        emit WorkflowStatusChange(WorkflowStatus.ProposalsRegistrationEnded, WorkflowStatus.VotingSessionStarted, sessionId);\r\n        emit VotingSessionStarted(sessionId);        \r\n    }    \r\n    \r\n    /**\r\n     * @dev Add a vote\r\n     * @param _votedProposalId index of proposal to vote\r\n     */\r\n    function addVote(uint16 _votedProposalId) external {\r\n        require(voters[msg.sender].isRegistered, \"Voter can not vote\");\r\n        require(currentStatus == WorkflowStatus.VotingSessionStarted, \"It is not time to vote!\");\r\n        require(!voters[msg.sender].hasVoted, \"Voter has already vote\");        \r\n        require(proposals[_votedProposalId].isActive, \"Proposition inactive\");      \r\n\r\n        voters[msg.sender].votedProposalId = _votedProposalId;\r\n        voters[msg.sender].hasVoted = true;\r\n        proposals[_votedProposalId].voteCount++;\r\n\r\n        emit Voted (msg.sender, _votedProposalId, sessionId);\r\n    }\r\n    \r\n     /**\r\n     * @dev Change status to VotingSessionEnded\r\n     */ \r\n    function votingSessionEnded() external onlyOwner{\r\n        require(currentStatus == WorkflowStatus.VotingSessionStarted, \"Not ProposalsRegistrationEnded Status\");\r\n        \r\n        currentStatus = WorkflowStatus.VotingSessionEnded;\r\n        \r\n        emit WorkflowStatusChange(WorkflowStatus.VotingSessionStarted, WorkflowStatus.VotingSessionEnded, sessionId);\r\n        emit VotingSessionEnded(sessionId);     \r\n    }       \r\n    \r\n    \r\n    /**\r\n     * @dev Tallied votes\r\n     */\r\n    function votesTallied() external onlyOwner {\r\n        require(currentStatus == WorkflowStatus.VotingSessionEnded, \"Session is still ongoing\");\r\n        \r\n        currentStatus = WorkflowStatus.VotesTallied;\r\n        \r\n        uint16 currentWinnerId;\r\n        uint16 nbVotesWinner;\r\n        uint16 totalVotes;\r\n\r\n        for(uint16 i; i<proposals.length; i++){\r\n            if (proposals[i].voteCount > nbVotesWinner){\r\n                currentWinnerId = i;\r\n                nbVotesWinner = proposals[i].voteCount;\r\n            }\r\n            totalVotes += proposals[i].voteCount;\r\n        }\r\n        proposalWinningId = currentWinnerId;\r\n        sessions[sessionId].endTimeSession = block.timestamp;\r\n        sessions[sessionId].winningProposalName = proposals[currentWinnerId].description;\r\n        sessions[sessionId].proposer = proposals[currentWinnerId].author;\r\n        sessions[sessionId].nbVotes = nbVotesWinner;\r\n        sessions[sessionId].totalVotes = totalVotes;       \r\n\r\n        emit WorkflowStatusChange(WorkflowStatus.VotingSessionEnded, WorkflowStatus.VotesTallied, sessionId);\r\n        emit VotesTallied(sessionId);\r\n    }\r\n\r\n    /**\r\n     * @dev Send Winning Proposal\r\n     * @return contentProposal description of proposal\r\n     * @return nbVotes number of votes\r\n     * @return nbVotesTotal number of totals votes\r\n     */\r\n    function getWinningProposal() external view returns(string memory contentProposal, uint16 nbVotes, uint16 nbVotesTotal){\r\n        require(currentStatus == WorkflowStatus.VotesTallied, \"Tallied not finished\"); \r\n        return (\r\n            proposals[proposalWinningId].description,\r\n            proposals[proposalWinningId].voteCount,\r\n            sessions[sessionId].totalVotes\r\n        );\r\n    }\r\n\r\n    /**\r\n     * @dev Send Session\r\n     * @param _sessionId index of session     \r\n     * @return winningProposalName description of proposal\r\n     * @return proposer author of proposal     \r\n     * @return nbVotes number of votes\r\n     * @return totalVotes number of totals votes\r\n     */\r\n    function getSessionResult(uint16 _sessionId) external view returns(string memory winningProposalName, address proposer, uint16 nbVotes, uint16 totalVotes){\r\n        require(sessionId >= _sessionId, \"Session not exist\"); \r\n        return (\r\n            sessions[_sessionId].winningProposalName,\r\n            sessions[_sessionId].proposer,\r\n            sessions[_sessionId].nbVotes,\r\n            sessions[_sessionId].totalVotes\r\n        );\r\n\r\n\r\n\r\n    }\r\n    \r\n    /**\r\n     * @dev Restart session\r\n     * @param deleteVoters delete voters\r\n     * @notice Feature_V2  \r\n     */ \r\n    function restartSession (bool deleteVoters) external {\r\n        require(currentStatus == WorkflowStatus.VotesTallied, \"Tallied not finished\"); \r\n  \r\n        delete(proposals);\r\n        \r\n        if(deleteVoters){\r\n            for(uint16 i; i<addressToSave.length; i++){\r\n                delete(voters[addressToSave[i]]);\r\n            }\r\n            delete(addressToSave);\r\n        }\r\n        else{\r\n            for(uint16 i; i<addressToSave.length; i++){\r\n                voters[addressToSave[i]].hasVoted=false;\r\n                voters[addressToSave[i]].hasProposed=false;   \r\n                if(voters[addressToSave[i]].isRegistered){\r\n                    emit VoterRegistered(addressToSave[i], voters[addressToSave[i]].isAbleToPropose, sessionId+1);\r\n                }      \r\n            }\r\n        }    \r\n    \r\n        sessionId++;\r\n        sessions.push(Session(0,0,'NC',address(0),0,0));\r\n        currentStatus = WorkflowStatus.RegisteringVoters;\r\n        proposals.push(Proposal('Vote blanc', 0, address(0), true));      \r\n\r\n        emit SessionRestart(sessionId);\r\n        emit ProposalRegistered(0, 'Vote blanc', address(0), sessionId);    \r\n    }\r\n \r\n} ",
  "sourcePath": "C:/Users/danie/Desktop/Solidity/React_Voting/contracts/Voting.sol",
  "compiler": {
    "name": "solc",
    "version": "0.6.12+commit.27d51765.Emscripten.clang"
  },
  "schemaVersion": "3.3.4",
  "updatedAt": "2021-03-21T21:40:42.771Z",
  "networkType": "ethereum",
  "devdoc": {
    "author": "Hlne BunelEdouard VahanianDaniel Villa Monteiro",
    "details": "Organise Voters registration, proposals registration, votes talling, resetting session",
    "kind": "dev",
    "methods": {
      "addProposal(string)": {
        "details": "Add a proposal",
        "params": {
          "_content": "content of proposal"
        }
      },
      "addVote(uint16)": {
        "details": "Add a vote",
        "params": {
          "_votedProposalId": "index of proposal to vote"
        }
      },
      "addVoter(address,bool)": {
        "details": "Add a voter",
        "params": {
          "_addressVoter": "address of new voter",
          "_isAbleToPropose": "is voter abble to propose proposals"
        }
      },
      "adminChangeStatus(uint8)": {
        "details": "Force change of status",
        "params": {
          "newStatus": "forced"
        }
      },
      "getSessionResult(uint16)": {
        "details": "Send Session",
        "params": {
          "_sessionId": "index of session     "
        },
        "returns": {
          "nbVotes": "number of votes",
          "proposer": "author of proposal     ",
          "totalVotes": "number of totals votes",
          "winningProposalName": "description of proposal"
        }
      },
      "getWinningProposal()": {
        "details": "Send Winning Proposal",
        "returns": {
          "contentProposal": "description of proposal",
          "nbVotes": "number of votes",
          "nbVotesTotal": "number of totals votes"
        }
      },
      "owner()": {
        "details": "Returns the address of the current owner."
      },
      "proposalSessionBegin()": {
        "details": "Change status to ProposalsRegistrationStarted"
      },
      "proposalSessionEnded()": {
        "details": "Change status to ProposalsRegistrationEnded"
      },
      "removeProposal(uint16)": {
        "details": "Remove a proposal",
        "params": {
          "_proposalId": "index of proposal to deactivate"
        }
      },
      "removeVoter(address)": {
        "details": "Remove a voter",
        "params": {
          "_addressVoter": "address of new voter"
        }
      },
      "renounceOwnership()": {
        "details": "Leaves the contract without owner. It will not be possible to call `onlyOwner` functions anymore. Can only be called by the current owner. NOTE: Renouncing ownership will leave the contract without an owner, thereby removing any functionality that is only available to the owner."
      },
      "restartSession(bool)": {
        "details": "Restart session",
        "params": {
          "deleteVoters": "delete voters"
        }
      },
      "transferOwnership(address)": {
        "details": "Transfers ownership of the contract to a new account (`newOwner`). Can only be called by the current owner."
      },
      "votesTallied()": {
        "details": "Tallied votes"
      },
      "votingSessionEnded()": {
        "details": "Change status to VotingSessionEnded"
      },
      "votingSessionStarted()": {
        "details": "Change status to VotingSessionStarted"
      }
    },
    "title": "Voting",
    "version": 1
  },
  "userdoc": {
    "kind": "user",
    "methods": {
      "removeProposal(uint16)": {
        "notice": "Feature_V2"
      },
      "restartSession(bool)": {
        "notice": "Feature_V2  "
      }
    },
    "notice": "We use uint16 size to index propoesals, voters and sessions (limit 65 536)",
    "version": 1
  }
}