{
  "contractName": "Voting",
  "abi": [
    {
      "inputs": [],
      "stateMutability": "nonpayable",
      "type": "constructor"
    },
    {
      "anonymous": false,
      "inputs": [
        {
          "indexed": true,
          "internalType": "address",
          "name": "previousOwner",
          "type": "address"
        },
        {
          "indexed": true,
          "internalType": "address",
          "name": "newOwner",
          "type": "address"
        }
      ],
      "name": "OwnershipTransferred",
      "type": "event"
    },
    {
      "anonymous": false,
      "inputs": [
        {
          "indexed": false,
          "internalType": "uint256",
          "name": "proposalId",
          "type": "uint256"
        }
      ],
      "name": "ProposalRegistered",
      "type": "event"
    },
    {
      "anonymous": false,
      "inputs": [
        {
          "indexed": false,
          "internalType": "uint256",
          "name": "proposalId",
          "type": "uint256"
        }
      ],
      "name": "ProposalUnRegistered",
      "type": "event"
    },
    {
      "anonymous": false,
      "inputs": [],
      "name": "ProposalsRegistrationEnded",
      "type": "event"
    },
    {
      "anonymous": false,
      "inputs": [],
      "name": "ProposalsRegistrationStarted",
      "type": "event"
    },
    {
      "anonymous": false,
      "inputs": [
        {
          "indexed": false,
          "internalType": "uint256",
          "name": "sessionId",
          "type": "uint256"
        }
      ],
      "name": "SessionRestart",
      "type": "event"
    },
    {
      "anonymous": false,
      "inputs": [
        {
          "indexed": false,
          "internalType": "address",
          "name": "voter",
          "type": "address"
        },
        {
          "indexed": false,
          "internalType": "uint256",
          "name": "proposalId",
          "type": "uint256"
        }
      ],
      "name": "Voted",
      "type": "event"
    },
    {
      "anonymous": false,
      "inputs": [
        {
          "indexed": false,
          "internalType": "address",
          "name": "voterAddress",
          "type": "address"
        }
      ],
      "name": "VoterRegistered",
      "type": "event"
    },
    {
      "anonymous": false,
      "inputs": [
        {
          "indexed": false,
          "internalType": "address",
          "name": "voterAddress",
          "type": "address"
        }
      ],
      "name": "VoterUnRegistered",
      "type": "event"
    },
    {
      "anonymous": false,
      "inputs": [],
      "name": "VotesTallied",
      "type": "event"
    },
    {
      "anonymous": false,
      "inputs": [],
      "name": "VotingSessionEnded",
      "type": "event"
    },
    {
      "anonymous": false,
      "inputs": [],
      "name": "VotingSessionStarted",
      "type": "event"
    },
    {
      "anonymous": false,
      "inputs": [
        {
          "indexed": false,
          "internalType": "enum Voting.WorkflowStatus",
          "name": "previousStatus",
          "type": "uint8"
        },
        {
          "indexed": false,
          "internalType": "enum Voting.WorkflowStatus",
          "name": "newStatus",
          "type": "uint8"
        }
      ],
      "name": "WorkflowStatusChange",
      "type": "event"
    },
    {
      "inputs": [
        {
          "internalType": "uint256",
          "name": "",
          "type": "uint256"
        }
      ],
      "name": "addressToSave",
      "outputs": [
        {
          "internalType": "address",
          "name": "",
          "type": "address"
        }
      ],
      "stateMutability": "view",
      "type": "function",
      "constant": true
    },
    {
      "inputs": [],
      "name": "currentStatus",
      "outputs": [
        {
          "internalType": "enum Voting.WorkflowStatus",
          "name": "",
          "type": "uint8"
        }
      ],
      "stateMutability": "view",
      "type": "function",
      "constant": true
    },
    {
      "inputs": [],
      "name": "owner",
      "outputs": [
        {
          "internalType": "address",
          "name": "",
          "type": "address"
        }
      ],
      "stateMutability": "view",
      "type": "function",
      "constant": true
    },
    {
      "inputs": [
        {
          "internalType": "uint256",
          "name": "",
          "type": "uint256"
        }
      ],
      "name": "proposals",
      "outputs": [
        {
          "internalType": "string",
          "name": "description",
          "type": "string"
        },
        {
          "internalType": "uint16",
          "name": "voteCount",
          "type": "uint16"
        },
        {
          "internalType": "address",
          "name": "author",
          "type": "address"
        },
        {
          "internalType": "bool",
          "name": "isActive",
          "type": "bool"
        }
      ],
      "stateMutability": "view",
      "type": "function",
      "constant": true
    },
    {
      "inputs": [],
      "name": "renounceOwnership",
      "outputs": [],
      "stateMutability": "nonpayable",
      "type": "function"
    },
    {
      "inputs": [],
      "name": "sessionId",
      "outputs": [
        {
          "internalType": "uint16",
          "name": "",
          "type": "uint16"
        }
      ],
      "stateMutability": "view",
      "type": "function",
      "constant": true
    },
    {
      "inputs": [
        {
          "internalType": "uint256",
          "name": "",
          "type": "uint256"
        }
      ],
      "name": "sessions",
      "outputs": [
        {
          "internalType": "uint256",
          "name": "startTimeSession",
          "type": "uint256"
        },
        {
          "internalType": "uint256",
          "name": "endTimeSession",
          "type": "uint256"
        },
        {
          "internalType": "string",
          "name": "winningProposalName",
          "type": "string"
        },
        {
          "internalType": "address",
          "name": "proposer",
          "type": "address"
        },
        {
          "internalType": "uint16",
          "name": "nbVotes",
          "type": "uint16"
        },
        {
          "internalType": "uint16",
          "name": "totalVotes",
          "type": "uint16"
        }
      ],
      "stateMutability": "view",
      "type": "function",
      "constant": true
    },
    {
      "inputs": [
        {
          "internalType": "address",
          "name": "newOwner",
          "type": "address"
        }
      ],
      "name": "transferOwnership",
      "outputs": [],
      "stateMutability": "nonpayable",
      "type": "function"
    },
    {
      "inputs": [
        {
          "internalType": "address",
          "name": "",
          "type": "address"
        }
      ],
      "name": "voters",
      "outputs": [
        {
          "internalType": "bool",
          "name": "isRegistered",
          "type": "bool"
        },
        {
          "internalType": "bool",
          "name": "hasVoted",
          "type": "bool"
        },
        {
          "internalType": "uint16",
          "name": "votedProposalId",
          "type": "uint16"
        },
        {
          "internalType": "bool",
          "name": "isAbleToPropose",
          "type": "bool"
        },
        {
          "internalType": "bool",
          "name": "hasProposed",
          "type": "bool"
        }
      ],
      "stateMutability": "view",
      "type": "function",
      "constant": true
    },
    {
      "inputs": [
        {
          "internalType": "uint8",
          "name": "newStatus",
          "type": "uint8"
        }
      ],
      "name": "adminChangeStatus",
      "outputs": [],
      "stateMutability": "nonpayable",
      "type": "function"
    },
    {
      "inputs": [
        {
          "internalType": "address",
          "name": "_addressVoter",
          "type": "address"
        },
        {
          "internalType": "bool",
          "name": "_isAbleToPropose",
          "type": "bool"
        }
      ],
      "name": "addVoter",
      "outputs": [],
      "stateMutability": "nonpayable",
      "type": "function"
    },
    {
      "inputs": [
        {
          "internalType": "address",
          "name": "_addressVoter",
          "type": "address"
        }
      ],
      "name": "removedVoter",
      "outputs": [],
      "stateMutability": "nonpayable",
      "type": "function"
    },
    {
      "inputs": [],
      "name": "proposalSessionBegin",
      "outputs": [],
      "stateMutability": "nonpayable",
      "type": "function"
    },
    {
      "inputs": [
        {
          "internalType": "string",
          "name": "_content",
          "type": "string"
        }
      ],
      "name": "addProposal",
      "outputs": [],
      "stateMutability": "nonpayable",
      "type": "function"
    },
    {
      "inputs": [],
      "name": "proposalSessionEnded",
      "outputs": [],
      "stateMutability": "nonpayable",
      "type": "function"
    },
    {
      "inputs": [
        {
          "internalType": "uint16",
          "name": "_proposalId",
          "type": "uint16"
        }
      ],
      "name": "removeProposal",
      "outputs": [],
      "stateMutability": "nonpayable",
      "type": "function"
    },
    {
      "inputs": [],
      "name": "votingSessionStarted",
      "outputs": [],
      "stateMutability": "nonpayable",
      "type": "function"
    },
    {
      "inputs": [
        {
          "internalType": "uint16",
          "name": "_votedProposalId",
          "type": "uint16"
        }
      ],
      "name": "addVote",
      "outputs": [],
      "stateMutability": "nonpayable",
      "type": "function"
    },
    {
      "inputs": [],
      "name": "votingSessionEnded",
      "outputs": [],
      "stateMutability": "nonpayable",
      "type": "function"
    },
    {
      "inputs": [],
      "name": "votesTallied",
      "outputs": [],
      "stateMutability": "nonpayable",
      "type": "function"
    },
    {
      "inputs": [],
      "name": "getWinningProposal",
      "outputs": [
        {
          "internalType": "string",
          "name": "contentProposal",
          "type": "string"
        },
        {
          "internalType": "uint16",
          "name": "nbVotes",
          "type": "uint16"
        },
        {
          "internalType": "uint16",
          "name": "nbVotesTotal",
          "type": "uint16"
        }
      ],
      "stateMutability": "view",
      "type": "function",
      "constant": true
    },
    {
      "inputs": [
        {
          "internalType": "bool",
          "name": "deleteVoters",
          "type": "bool"
        }
      ],
      "name": "restartSession",
      "outputs": [],
      "stateMutability": "nonpayable",
      "type": "function"
    }
  ],
  "bytecode": "0x60806040523480156200001157600080fd5b50600062000024620003c860201b60201c565b9050806000806101000a81548173ffffffffffffffffffffffffffffffffffffffff021916908373ffffffffffffffffffffffffffffffffffffffff1602179055508073ffffffffffffffffffffffffffffffffffffffff16600073ffffffffffffffffffffffffffffffffffffffff167f8be0079c531659141344cd1fd0a4f28419497f9722a3daafe3b4186f6b6457e060405160405180910390a3506000600560026101000a81548161ffff021916908361ffff16021790555060036040518060c0016040528060008152602001600081526020016040518060400160405280600281526020017f4e430000000000000000000000000000000000000000000000000000000000008152508152602001600073ffffffffffffffffffffffffffffffffffffffff168152602001600061ffff168152602001600061ffff16815250908060018154018082558091505060019003906000526020600020906004020160009091909190915060008201518160000155602082015181600101556040820151816002019080519060200190620001c2929190620003d0565b5060608201518160030160006101000a81548173ffffffffffffffffffffffffffffffffffffffff021916908373ffffffffffffffffffffffffffffffffffffffff16021790555060808201518160030160146101000a81548161ffff021916908361ffff16021790555060a08201518160030160166101000a81548161ffff021916908361ffff16021790555050506000600560046101000a81548160ff021916908360058111156200027257fe5b0217905550600260405180608001604052806040518060400160405280600a81526020017f426c616e6b20566f7465000000000000000000000000000000000000000000008152508152602001600061ffff168152602001600073ffffffffffffffffffffffffffffffffffffffff168152602001600115158152509080600181540180825580915050600190039060005260206000209060020201600090919091909150600082015181600001908051906020019062000335929190620003d0565b5060208201518160010160006101000a81548161ffff021916908361ffff16021790555060408201518160010160026101000a81548173ffffffffffffffffffffffffffffffffffffffff021916908373ffffffffffffffffffffffffffffffffffffffff16021790555060608201518160010160166101000a81548160ff021916908315150217905550505062000486565b600033905090565b828054600181600116156101000203166002900490600052602060002090601f01602090048101928262000408576000855562000454565b82601f106200042357805160ff191683800117855562000454565b8280016001018555821562000454579182015b828111156200045357825182559160200191906001019062000436565b5b50905062000463919062000467565b5090565b5b808211156200048257600081600090555060010162000468565b5090565b61384180620004966000396000f3fe608060405234801561001057600080fd5b50600436106101425760003560e01c80638da5cb5b116100b8578063a878b4681161007c578063a878b46814610689578063ada7415f146106d9578063c4f350f3146106e3578063cbf837ea14610714578063ef8a92351461071e578063f2fde38b1461074757610142565b80638da5cb5b146105105780639648c9f414610544578063a1f16d2514610566578063a3ec138d14610570578063a5134620146105f057610142565b806354c74c471161010a57806354c74c47146103a85780635ac70e54146103b2578063715018a6146103bc578063813a9ee4146103c657806383c4b7a3146103f6578063863b85bf146104de57610142565b8063013cf08b146101475780632b474cbe1461021f5780632fdae3c5146102775780634225083a146103325780634bb3a0e914610376575b600080fd5b6101736004803603602081101561015d57600080fd5b810190808035906020019092919050505061078b565b60405180806020018561ffff1681526020018473ffffffffffffffffffffffffffffffffffffffff1681526020018315158152602001828103825286818151815260200191508051906020019080838360005b838110156101e15780820151818401526020810190506101c6565b50505050905090810190601f16801561020e5780820380516001836020036101000a031916815260200191505b509550505050505060405180910390f35b61024b6004803603602081101561023557600080fd5b810190808035906020019092919050505061089e565b604051808273ffffffffffffffffffffffffffffffffffffffff16815260200191505060405180910390f35b6103306004803603602081101561028d57600080fd5b81019080803590602001906401000000008111156102aa57600080fd5b8201836020820111156102bc57600080fd5b803590602001918460018302840111640100000000831117156102de57600080fd5b91908080601f016020809104026020016040519081016040528093929190818152602001838380828437600081840152601f19601f8201169050808301925050505050505091929192905050506108dd565b005b6103746004803603602081101561034857600080fd5b81019080803573ffffffffffffffffffffffffffffffffffffffff169060200190929190505050610d57565b005b6103a66004803603602081101561038c57600080fd5b81019080803561ffff16906020019092919050505061100e565b005b6103b06111b4565b005b6103ba61138a565b005b6103c4611560565b005b6103f4600480360360208110156103dc57600080fd5b810190808035151590602001909291905050506116cd565b005b6104226004803603602081101561040c57600080fd5b8101908080359060200190929190505050611d41565b60405180878152602001868152602001806020018573ffffffffffffffffffffffffffffffffffffffff1681526020018461ffff1681526020018361ffff168152602001828103825286818151815260200191508051906020019080838360005b8381101561049e578082015181840152602081019050610483565b50505050905090810190601f1680156104cb5780820380516001836020036101000a031916815260200191505b5097505050505050505060405180910390f35b61050e600480360360208110156104f457600080fd5b81019080803561ffff169060200190929190505050611e61565b005b61051861228b565b604051808273ffffffffffffffffffffffffffffffffffffffff16815260200191505060405180910390f35b61054c6122b4565b604051808261ffff16815260200191505060405180910390f35b61056e6122c8565b005b6105b26004803603602081101561058657600080fd5b81019080803573ffffffffffffffffffffffffffffffffffffffff16906020019092919050505061249e565b60405180861515815260200185151581526020018461ffff168152602001831515815260200182151581526020019550505050505060405180910390f35b6105f8612516565b60405180806020018461ffff1681526020018361ffff168152602001828103825285818151815260200191508051906020019080838360005b8381101561064c578082015181840152602081019050610631565b50505050905090810190601f1680156106795780820380516001836020036101000a031916815260200191505b5094505050505060405180910390f35b6106d76004803603604081101561069f57600080fd5b81019080803573ffffffffffffffffffffffffffffffffffffffff169060200190929190803515159060200190929190505050612710565b005b6106e1612aed565b005b610712600480360360208110156106f957600080fd5b81019080803560ff169060200190929190505050612fc9565b005b61071c61311e565b005b610726613348565b6040518082600581111561073657fe5b815260200191505060405180910390f35b6107896004803603602081101561075d57600080fd5b81019080803573ffffffffffffffffffffffffffffffffffffffff16906020019092919050505061335b565b005b6002818154811061079b57600080fd5b9060005260206000209060020201600091509050806000018054600181600116156101000203166002900480601f0160208091040260200160405190810160405280929190818152602001828054600181600116156101000203166002900480156108475780601f1061081c57610100808354040283529160200191610847565b820191906000526020600020905b81548152906001019060200180831161082a57829003601f168201915b5050505050908060010160009054906101000a900461ffff16908060010160029054906101000a900473ffffffffffffffffffffffffffffffffffffffff16908060010160169054906101000a900460ff16905084565b600481815481106108ae57600080fd5b906000526020600020016000915054906101000a900473ffffffffffffffffffffffffffffffffffffffff1681565b600160058111156108ea57fe5b600560049054906101000a900460ff16600581111561090557fe5b1461095b576040517f08c379a00000000000000000000000000000000000000000000000000000000081526004018080602001828103825260278152602001806137e56027913960400191505060405180910390fd5b600160003373ffffffffffffffffffffffffffffffffffffffff1673ffffffffffffffffffffffffffffffffffffffff16815260200190815260200160002060000160009054906101000a900460ff16610a1d576040517f08c379a00000000000000000000000000000000000000000000000000000000081526004018080602001828103825260138152602001807f566f746572206e6f74207265676973747265640000000000000000000000000081525060200191505060405180910390fd5b600160003373ffffffffffffffffffffffffffffffffffffffff1673ffffffffffffffffffffffffffffffffffffffff16815260200190815260200160002060000160049054906101000a900460ff16610adf576040517f08c379a00000000000000000000000000000000000000000000000000000000081526004018080602001828103825260128152602001807f566f746572206e6f742070726f706f736572000000000000000000000000000081525060200191505060405180910390fd5b600160003373ffffffffffffffffffffffffffffffffffffffff1673ffffffffffffffffffffffffffffffffffffffff16815260200190815260200160002060000160059054906101000a900460ff1615610ba2576040517f08c379a000000000000000000000000000000000000000000000000000000000815260040180806020018281038252601a8152602001807f566f7465722068617320616c72656164792070726f706f73656400000000000081525060200191505060405180910390fd5b60026040518060800160405280838152602001600061ffff1681526020013373ffffffffffffffffffffffffffffffffffffffff1681526020016001151581525090806001815401808255809150506001900390600052602060002090600202016000909190919091506000820151816000019080519060200190610c28929190613555565b5060208201518160010160006101000a81548161ffff021916908361ffff16021790555060408201518160010160026101000a81548173ffffffffffffffffffffffffffffffffffffffff021916908373ffffffffffffffffffffffffffffffffffffffff16021790555060608201518160010160166101000a81548160ff021916908315150217905550505060018060003373ffffffffffffffffffffffffffffffffffffffff1673ffffffffffffffffffffffffffffffffffffffff16815260200190815260200160002060000160056101000a81548160ff021916908315150217905550600060016002805490500390507f92e393e9b54e2f801d3ea4beb0c5e71a21cc34a5d34b77d0fb8a3aa1650dc18f816040518082815260200191505060405180910390a15050565b610d5f61354d565b73ffffffffffffffffffffffffffffffffffffffff16610d7d61228b565b73ffffffffffffffffffffffffffffffffffffffff1614610e06576040517f08c379a00000000000000000000000000000000000000000000000000000000081526004018080602001828103825260208152602001807f4f776e61626c653a2063616c6c6572206973206e6f7420746865206f776e657281525060200191505060405180910390fd5b60006005811115610e1357fe5b600560049054906101000a900460ff166005811115610e2e57fe5b14610ea1576040517f08c379a000000000000000000000000000000000000000000000000000000000815260040180806020018281038252601c8152602001807f4e6f74205265676973746572696e67566f74657273205374617475730000000081525060200191505060405180910390fd5b600160008273ffffffffffffffffffffffffffffffffffffffff1673ffffffffffffffffffffffffffffffffffffffff16815260200190815260200160002060000160009054906101000a900460ff16610f63576040517f08c379a00000000000000000000000000000000000000000000000000000000081526004018080602001828103825260138152602001807f566f746572206e6f74207265676973747265640000000000000000000000000081525060200191505060405180910390fd5b6000600160008373ffffffffffffffffffffffffffffffffffffffff1673ffffffffffffffffffffffffffffffffffffffff16815260200190815260200160002060000160006101000a81548160ff0219169083151502179055507fbcbaafd5b6b0bdadb54e1319af760bd09fc531fcf01b485e0a623e0eb0dfa8f781604051808273ffffffffffffffffffffffffffffffffffffffff16815260200191505060405180910390a150565b61101661354d565b73ffffffffffffffffffffffffffffffffffffffff1661103461228b565b73ffffffffffffffffffffffffffffffffffffffff16146110bd576040517f08c379a00000000000000000000000000000000000000000000000000000000081526004018080602001828103825260208152602001807f4f776e61626c653a2063616c6c6572206973206e6f7420746865206f776e657281525060200191505060405180910390fd5b600260058111156110ca57fe5b600560049054906101000a900460ff1660058111156110e557fe5b1461113b576040517f08c379a00000000000000000000000000000000000000000000000000000000081526004018080602001828103825260258152602001806137c06025913960400191505060405180910390fd5b600060028261ffff168154811061114e57fe5b906000526020600020906002020160010160166101000a81548160ff0219169083151502179055507f17e1c8c9c983adad884182c74c6ec7f10eeff6d1a5df40ad3f4f878f60d1b7b381604051808261ffff16815260200191505060405180910390a150565b6111bc61354d565b73ffffffffffffffffffffffffffffffffffffffff166111da61228b565b73ffffffffffffffffffffffffffffffffffffffff1614611263576040517f08c379a00000000000000000000000000000000000000000000000000000000081526004018080602001828103825260208152602001807f4f776e61626c653a2063616c6c6572206973206e6f7420746865206f776e657281525060200191505060405180910390fd5b6002600581111561127057fe5b600560049054906101000a900460ff16600581111561128b57fe5b146112e1576040517f08c379a00000000000000000000000000000000000000000000000000000000081526004018080602001828103825260258152602001806137c06025913960400191505060405180910390fd5b6003600560046101000a81548160ff0219169083600581111561130057fe5b02179055507f0a97a4ee45751e2abf3e4fc8946939630b11b371ea8ae39ccdc3056e98f5cc3f600260036040518083600581111561133a57fe5b815260200182600581111561134b57fe5b81526020019250505060405180910390a17f1b8e19a458c1bcd88553332c518cc5c4e2d5793e712ee766d4f1c14f672ef1f560405160405180910390a1565b61139261354d565b73ffffffffffffffffffffffffffffffffffffffff166113b061228b565b73ffffffffffffffffffffffffffffffffffffffff1614611439576040517f08c379a00000000000000000000000000000000000000000000000000000000081526004018080602001828103825260208152602001807f4f776e61626c653a2063616c6c6572206973206e6f7420746865206f776e657281525060200191505060405180910390fd5b6001600581111561144657fe5b600560049054906101000a900460ff16600581111561146157fe5b146114b7576040517f08c379a00000000000000000000000000000000000000000000000000000000081526004018080602001828103825260278152602001806137e56027913960400191505060405180910390fd5b6002600560046101000a81548160ff021916908360058111156114d657fe5b02179055507f0a97a4ee45751e2abf3e4fc8946939630b11b371ea8ae39ccdc3056e98f5cc3f600160026040518083600581111561151057fe5b815260200182600581111561152157fe5b81526020019250505060405180910390a17f240cb87b2e4df4c318e72bd714d45a9cad60249e883ff56b1fffd83a4595a8fa60405160405180910390a1565b61156861354d565b73ffffffffffffffffffffffffffffffffffffffff1661158661228b565b73ffffffffffffffffffffffffffffffffffffffff161461160f576040517f08c379a00000000000000000000000000000000000000000000000000000000081526004018080602001828103825260208152602001807f4f776e61626c653a2063616c6c6572206973206e6f7420746865206f776e657281525060200191505060405180910390fd5b600073ffffffffffffffffffffffffffffffffffffffff1660008054906101000a900473ffffffffffffffffffffffffffffffffffffffff1673ffffffffffffffffffffffffffffffffffffffff167f8be0079c531659141344cd1fd0a4f28419497f9722a3daafe3b4186f6b6457e060405160405180910390a360008060006101000a81548173ffffffffffffffffffffffffffffffffffffffff021916908373ffffffffffffffffffffffffffffffffffffffff160217905550565b6005808111156116d957fe5b600560049054906101000a900460ff1660058111156116f457fe5b14611767576040517f08c379a00000000000000000000000000000000000000000000000000000000081526004018080602001828103825260148152602001807f54616c6c696564206e6f742066696e697368656400000000000000000000000081525060200191505060405180910390fd5b6002600061177591906135e3565b80156118925760005b6004805490508161ffff16101561187e576001600060048361ffff16815481106117a457fe5b9060005260206000200160009054906101000a900473ffffffffffffffffffffffffffffffffffffffff1673ffffffffffffffffffffffffffffffffffffffff1673ffffffffffffffffffffffffffffffffffffffff168152602001908152602001600020600080820160006101000a81549060ff02191690556000820160016101000a81549060ff02191690556000820160026101000a81549061ffff02191690556000820160046101000a81549060ff02191690556000820160056101000a81549060ff02191690555050808060010191505061177e565b506004600061188d9190613607565b6119e1565b60005b6004805490508161ffff1610156119df5760006001600060048461ffff16815481106118bd57fe5b9060005260206000200160009054906101000a900473ffffffffffffffffffffffffffffffffffffffff1673ffffffffffffffffffffffffffffffffffffffff1673ffffffffffffffffffffffffffffffffffffffff16815260200190815260200160002060000160016101000a81548160ff02191690831515021790555060006001600060048461ffff168154811061195357fe5b9060005260206000200160009054906101000a900473ffffffffffffffffffffffffffffffffffffffff1673ffffffffffffffffffffffffffffffffffffffff1673ffffffffffffffffffffffffffffffffffffffff16815260200190815260200160002060000160056101000a81548160ff0219169083151502179055508080600101915050611895565b505b6005600281819054906101000a900461ffff168092919060010191906101000a81548161ffff021916908361ffff1602179055505060036040518060c0016040528060008152602001600081526020016040518060400160405280600281526020017f4e430000000000000000000000000000000000000000000000000000000000008152508152602001600073ffffffffffffffffffffffffffffffffffffffff168152602001600061ffff168152602001600061ffff16815250908060018154018082558091505060019003906000526020600020906004020160009091909190915060008201518160000155602082015181600101556040820151816002019080519060200190611af6929190613555565b5060608201518160030160006101000a81548173ffffffffffffffffffffffffffffffffffffffff021916908373ffffffffffffffffffffffffffffffffffffffff16021790555060808201518160030160146101000a81548161ffff021916908361ffff16021790555060a08201518160030160166101000a81548161ffff021916908361ffff16021790555050506000600560046101000a81548160ff02191690836005811115611ba557fe5b0217905550600260405180608001604052806040518060400160405280600a81526020017f426c616e6b20566f7465000000000000000000000000000000000000000000008152508152602001600061ffff168152602001600073ffffffffffffffffffffffffffffffffffffffff1681526020016001151581525090806001815401808255809150506001900390600052602060002090600202016000909190919091506000820151816000019080519060200190611c66929190613555565b5060208201518160010160006101000a81548161ffff021916908361ffff16021790555060408201518160010160026101000a81548173ffffffffffffffffffffffffffffffffffffffff021916908373ffffffffffffffffffffffffffffffffffffffff16021790555060608201518160010160166101000a81548160ff02191690831515021790555050507fd17d644375ea482b2c4b02c6bd3072fd8e5414b01d2b0c94ff456448fc027846600560029054906101000a900461ffff16604051808261ffff16815260200191505060405180910390a150565b60038181548110611d5157600080fd5b9060005260206000209060040201600091509050806000015490806001015490806002018054600181600116156101000203166002900480601f016020809104026020016040519081016040528092919081815260200182805460018160011615610100020316600290048015611e095780601f10611dde57610100808354040283529160200191611e09565b820191906000526020600020905b815481529060010190602001808311611dec57829003601f168201915b5050505050908060030160009054906101000a900473ffffffffffffffffffffffffffffffffffffffff16908060030160149054906101000a900461ffff16908060030160169054906101000a900461ffff16905086565b600160003373ffffffffffffffffffffffffffffffffffffffff1673ffffffffffffffffffffffffffffffffffffffff16815260200190815260200160002060000160009054906101000a900460ff16611f23576040517f08c379a00000000000000000000000000000000000000000000000000000000081526004018080602001828103825260128152602001807f566f7465722063616e206e6f7420766f7465000000000000000000000000000081525060200191505060405180910390fd5b60036005811115611f3057fe5b600560049054906101000a900460ff166005811115611f4b57fe5b14611fbe576040517f08c379a00000000000000000000000000000000000000000000000000000000081526004018080602001828103825260178152602001807f4974206973206e6f742074696d6520746f20766f74652100000000000000000081525060200191505060405180910390fd5b600160003373ffffffffffffffffffffffffffffffffffffffff1673ffffffffffffffffffffffffffffffffffffffff16815260200190815260200160002060000160019054906101000a900460ff1615612081576040517f08c379a00000000000000000000000000000000000000000000000000000000081526004018080602001828103825260168152602001807f566f7465722068617320616c726561647920766f74650000000000000000000081525060200191505060405180910390fd5b60028161ffff168154811061209257fe5b906000526020600020906002020160010160169054906101000a900460ff16612123576040517f08c379a00000000000000000000000000000000000000000000000000000000081526004018080602001828103825260148152602001807f50726f706f736974696f6e20696e61637469766500000000000000000000000081525060200191505060405180910390fd5b80600160003373ffffffffffffffffffffffffffffffffffffffff1673ffffffffffffffffffffffffffffffffffffffff16815260200190815260200160002060000160026101000a81548161ffff021916908361ffff16021790555060018060003373ffffffffffffffffffffffffffffffffffffffff1673ffffffffffffffffffffffffffffffffffffffff16815260200190815260200160002060000160016101000a81548160ff02191690831515021790555060028161ffff16815481106121eb57fe5b9060005260206000209060020201600101600081819054906101000a900461ffff168092919060010191906101000a81548161ffff021916908361ffff160217905550507f4d99b957a2bc29a30ebd96a7be8e68fe50a3c701db28a91436490b7d53870ca43382604051808373ffffffffffffffffffffffffffffffffffffffff1681526020018261ffff1681526020019250505060405180910390a150565b60008060009054906101000a900473ffffffffffffffffffffffffffffffffffffffff16905090565b600560029054906101000a900461ffff1681565b6122d061354d565b73ffffffffffffffffffffffffffffffffffffffff166122ee61228b565b73ffffffffffffffffffffffffffffffffffffffff1614612377576040517f08c379a00000000000000000000000000000000000000000000000000000000081526004018080602001828103825260208152602001807f4f776e61626c653a2063616c6c6572206973206e6f7420746865206f776e657281525060200191505060405180910390fd5b6003600581111561238457fe5b600560049054906101000a900460ff16600581111561239f57fe5b146123f5576040517f08c379a00000000000000000000000000000000000000000000000000000000081526004018080602001828103825260258152602001806137c06025913960400191505060405180910390fd5b6004600560046101000a81548160ff0219169083600581111561241457fe5b02179055507f0a97a4ee45751e2abf3e4fc8946939630b11b371ea8ae39ccdc3056e98f5cc3f600360046040518083600581111561244e57fe5b815260200182600581111561245f57fe5b81526020019250505060405180910390a17fc379d349a6301baf50fb2f98d829f4ae10b1cdb7c66f4e4d8117302df7b8cd4c60405160405180910390a1565b60016020528060005260406000206000915090508060000160009054906101000a900460ff16908060000160019054906101000a900460ff16908060000160029054906101000a900461ffff16908060000160049054906101000a900460ff16908060000160059054906101000a900460ff16905085565b606060008060058081111561252757fe5b600560049054906101000a900460ff16600581111561254257fe5b146125b5576040517f08c379a00000000000000000000000000000000000000000000000000000000081526004018080602001828103825260148152602001807f54616c6c696564206e6f742066696e697368656400000000000000000000000081525060200191505060405180910390fd5b6002600560009054906101000a900461ffff1661ffff16815481106125d657fe5b90600052602060002090600202016000016002600560009054906101000a900461ffff1661ffff168154811061260857fe5b906000526020600020906002020160010160009054906101000a900461ffff166003600560029054906101000a900461ffff1661ffff168154811061264957fe5b906000526020600020906004020160030160169054906101000a900461ffff16828054600181600116156101000203166002900480601f0160208091040260200160405190810160405280929190818152602001828054600181600116156101000203166002900480156126fe5780601f106126d3576101008083540402835291602001916126fe565b820191906000526020600020905b8154815290600101906020018083116126e157829003601f168201915b50505050509250925092509250909192565b61271861354d565b73ffffffffffffffffffffffffffffffffffffffff1661273661228b565b73ffffffffffffffffffffffffffffffffffffffff16146127bf576040517f08c379a00000000000000000000000000000000000000000000000000000000081526004018080602001828103825260208152602001807f4f776e61626c653a2063616c6c6572206973206e6f7420746865206f776e657281525060200191505060405180910390fd5b600060058111156127cc57fe5b600560049054906101000a900460ff1660058111156127e757fe5b1461285a576040517f08c379a000000000000000000000000000000000000000000000000000000000815260040180806020018281038252601c8152602001807f4e6f74205265676973746572696e67566f74657273205374617475730000000081525060200191505060405180910390fd5b600160008373ffffffffffffffffffffffffffffffffffffffff1673ffffffffffffffffffffffffffffffffffffffff16815260200190815260200160002060000160009054906101000a900460ff161561291d576040517f08c379a00000000000000000000000000000000000000000000000000000000081526004018080602001828103825260178152602001807f566f74657220616c72656164792072656769737472656400000000000000000081525060200191505060405180910390fd5b6040518060a00160405280600115158152602001600015158152602001600061ffff168152602001821515815260200160001515815250600160008473ffffffffffffffffffffffffffffffffffffffff1673ffffffffffffffffffffffffffffffffffffffff16815260200190815260200160002060008201518160000160006101000a81548160ff02191690831515021790555060208201518160000160016101000a81548160ff02191690831515021790555060408201518160000160026101000a81548161ffff021916908361ffff16021790555060608201518160000160046101000a81548160ff02191690831515021790555060808201518160000160056101000a81548160ff0219169083151502179055509050506004829080600181540180825580915050600190039060005260206000200160009091909190916101000a81548173ffffffffffffffffffffffffffffffffffffffff021916908373ffffffffffffffffffffffffffffffffffffffff1602179055507fb6be2187d059cc2a55fe29e0e503b566e1e0f8c8780096e185429350acffd3dd82604051808273ffffffffffffffffffffffffffffffffffffffff16815260200191505060405180910390a15050565b612af561354d565b73ffffffffffffffffffffffffffffffffffffffff16612b1361228b565b73ffffffffffffffffffffffffffffffffffffffff1614612b9c576040517f08c379a00000000000000000000000000000000000000000000000000000000081526004018080602001828103825260208152602001807f4f776e61626c653a2063616c6c6572206973206e6f7420746865206f776e657281525060200191505060405180910390fd5b60046005811115612ba957fe5b600560049054906101000a900460ff166005811115612bc457fe5b14612c37576040517f08c379a00000000000000000000000000000000000000000000000000000000081526004018080602001828103825260188152602001807f53657373696f6e206973207374696c6c206f6e676f696e67000000000000000081525060200191505060405180910390fd5b60058060046101000a81548160ff02191690836005811115612c5557fe5b02179055506000806000805b6002805490508161ffff161015612d2b578261ffff1660028261ffff1681548110612c8857fe5b906000526020600020906002020160010160009054906101000a900461ffff1661ffff161115612ce95780935060028161ffff1681548110612cc657fe5b906000526020600020906002020160010160009054906101000a900461ffff1692505b60028161ffff1681548110612cfa57fe5b906000526020600020906002020160010160009054906101000a900461ffff16820191508080600101915050612c61565b5082600560006101000a81548161ffff021916908361ffff160217905550426003600560029054906101000a900461ffff1661ffff1681548110612d6b57fe5b90600052602060002090600402016001018190555060028361ffff1681548110612d9157fe5b90600052602060002090600202016000016003600560029054906101000a900461ffff1661ffff1681548110612dc357fe5b90600052602060002090600402016002019080546001816001161561010002031660029004612df3929190613628565b5060028361ffff1681548110612e0557fe5b906000526020600020906002020160010160029054906101000a900473ffffffffffffffffffffffffffffffffffffffff166003600560029054906101000a900461ffff1661ffff1681548110612e5857fe5b906000526020600020906004020160030160006101000a81548173ffffffffffffffffffffffffffffffffffffffff021916908373ffffffffffffffffffffffffffffffffffffffff160217905550816003600560029054906101000a900461ffff1661ffff1681548110612ec957fe5b906000526020600020906004020160030160146101000a81548161ffff021916908361ffff160217905550806003600560029054906101000a900461ffff1661ffff1681548110612f1657fe5b906000526020600020906004020160030160166101000a81548161ffff021916908361ffff1602179055507f0a97a4ee45751e2abf3e4fc8946939630b11b371ea8ae39ccdc3056e98f5cc3f6004600560405180836005811115612f7657fe5b8152602001826005811115612f8757fe5b81526020019250505060405180910390a17f0e5e95ff8725ab3e7a4b6b59998a4c344c2aa8d1485f5e60cb7f337768e6134760405160405180910390a1505050565b612fd161354d565b73ffffffffffffffffffffffffffffffffffffffff16612fef61228b565b73ffffffffffffffffffffffffffffffffffffffff1614613078576040517f08c379a00000000000000000000000000000000000000000000000000000000081526004018080602001828103825260208152602001807f4f776e61626c653a2063616c6c6572206973206e6f7420746865206f776e657281525060200191505060405180910390fd5b7f0a97a4ee45751e2abf3e4fc8946939630b11b371ea8ae39ccdc3056e98f5cc3f600560049054906101000a900460ff168260ff1660058111156130b857fe5b604051808360058111156130c857fe5b81526020018260058111156130d957fe5b81526020019250505060405180910390a18060ff1660058111156130f957fe5b600560046101000a81548160ff0219169083600581111561311657fe5b021790555050565b61312661354d565b73ffffffffffffffffffffffffffffffffffffffff1661314461228b565b73ffffffffffffffffffffffffffffffffffffffff16146131cd576040517f08c379a00000000000000000000000000000000000000000000000000000000081526004018080602001828103825260208152602001807f4f776e61626c653a2063616c6c6572206973206e6f7420746865206f776e657281525060200191505060405180910390fd5b600060058111156131da57fe5b600560049054906101000a900460ff1660058111156131f557fe5b14613268576040517f08c379a000000000000000000000000000000000000000000000000000000000815260040180806020018281038252601c8152602001807f4e6f74205265676973746572696e67566f74657273205374617475730000000081525060200191505060405180910390fd5b426003600560029054906101000a900461ffff1661ffff168154811061328a57fe5b9060005260206000209060040201600001819055506001600560046101000a81548160ff021916908360058111156132be57fe5b02179055507f0a97a4ee45751e2abf3e4fc8946939630b11b371ea8ae39ccdc3056e98f5cc3f60006001604051808360058111156132f857fe5b815260200182600581111561330957fe5b81526020019250505060405180910390a17f344c25562921d075a298d34b6dd1fd00d36ff293974539dfd4a8c625d9f0064c60405160405180910390a1565b600560049054906101000a900460ff1681565b61336361354d565b73ffffffffffffffffffffffffffffffffffffffff1661338161228b565b73ffffffffffffffffffffffffffffffffffffffff161461340a576040517f08c379a00000000000000000000000000000000000000000000000000000000081526004018080602001828103825260208152602001807f4f776e61626c653a2063616c6c6572206973206e6f7420746865206f776e657281525060200191505060405180910390fd5b600073ffffffffffffffffffffffffffffffffffffffff168173ffffffffffffffffffffffffffffffffffffffff161415613490576040517f08c379a000000000000000000000000000000000000000000000000000000000815260040180806020018281038252602681526020018061379a6026913960400191505060405180910390fd5b8073ffffffffffffffffffffffffffffffffffffffff1660008054906101000a900473ffffffffffffffffffffffffffffffffffffffff1673ffffffffffffffffffffffffffffffffffffffff167f8be0079c531659141344cd1fd0a4f28419497f9722a3daafe3b4186f6b6457e060405160405180910390a3806000806101000a81548173ffffffffffffffffffffffffffffffffffffffff021916908373ffffffffffffffffffffffffffffffffffffffff16021790555050565b600033905090565b828054600181600116156101000203166002900490600052602060002090601f01602090048101928261358b57600085556135d2565b82601f106135a457805160ff19168380011785556135d2565b828001600101855582156135d2579182015b828111156135d15782518255916020019190600101906135b6565b5b5090506135df91906136bd565b5090565b508054600082556002029060005260206000209081019061360491906136da565b50565b508054600082559060005260206000209081019061362591906136bd565b50565b828054600181600116156101000203166002900490600052602060002090601f01602090048101928261365e57600085556136ac565b82601f1061366f57805485556136ac565b828001600101855582156136ac57600052602060002091601f016020900482015b828111156136ab578254825591600101919060010190613690565b5b5090506136b991906136bd565b5090565b5b808211156136d65760008160009055506001016136be565b5090565b5b8082111561374d57600080820160006136f49190613751565b6001820160006101000a81549061ffff02191690556001820160026101000a81549073ffffffffffffffffffffffffffffffffffffffff02191690556001820160166101000a81549060ff0219169055506002016136db565b5090565b50805460018160011615610100020316600290046000825580601f106137775750613796565b601f01602090049060005260206000209081019061379591906136bd565b5b5056fe4f776e61626c653a206e6577206f776e657220697320746865207a65726f20616464726573734e6f742050726f706f73616c73526567697374726174696f6e456e646564205374617475734e6f742050726f706f73616c73526567697374726174696f6e5374617274656420537461747573a264697066735822122042b57382c165eef4022eaa3fc58952791685c704feb12992645a9b54b06d6e3a64736f6c63430007040033",
  "immutableReferences": {},
  "source": "// SPDX-License-Identifier:  GPL-3.0\r\npragma solidity 0.7.4;\r\n \r\n//import \"https://github.com/OpenZeppelin/openzeppelin-contracts/blob/master/contracts/access/Ownable.sol\";\r\nimport \"@openzeppelin/contracts/access/Ownable.sol\";\r\n\r\n/**\r\n * @title Voting\r\n * @dev Organise Voters registration, proposals registration, votes talling, resetting session\r\n * @author Hlne Bunel\r\n * @author Edouard Vahanian\r\n * @author Daniel Villa Monteiro\r\n * @notice We use uint16 size to index propoesals, voters and sessions (limit 65 536)\r\n */\r\n\r\ncontract Voting is Ownable {\r\n    \r\n    /**\r\n     * @dev Structure of Voter\r\n     * @notice Feature_V2 : isAbleToPropose and hasProposed\r\n     */\r\n    struct Voter {\r\n        bool isRegistered;\r\n        bool hasVoted; \r\n        uint16 votedProposalId;\r\n        bool isAbleToPropose; \r\n        bool hasProposed; \r\n    }\r\n    \r\n     /**\r\n     * @dev Structure of Voter\r\n     * @notice Feature_V2 : author and isActive\r\n     */\r\n    struct Proposal {\r\n        string description;\r\n        uint16 voteCount;\r\n        address author; \r\n        bool isActive;   \r\n    }\r\n    \r\n    /**\r\n     * @dev Structure of Session\r\n     * @notice Feature_V2\r\n     */\r\n    struct Session {\r\n        uint startTimeSession;  \r\n        uint endTimeSession;  \r\n        string winningProposalName;    \r\n        address proposer;\r\n        uint16 nbVotes;\r\n        uint16 totalVotes;\r\n    }\r\n\r\n\r\n    /**\r\n     * @dev WorkflowStatus\r\n     * @notice 6 states \r\n     */\r\n    enum WorkflowStatus {\r\n        RegisteringVoters,\r\n        ProposalsRegistrationStarted,\r\n        ProposalsRegistrationEnded,\r\n        VotingSessionStarted,\r\n        VotingSessionEnded,\r\n        VotesTallied\r\n    }\r\n \r\n    event VoterRegistered(address voterAddress);\r\n    event VoterUnRegistered(address voterAddress);                                              // Feature_V2     \r\n    event ProposalsRegistrationStarted();\r\n    event ProposalsRegistrationEnded();\r\n    event ProposalRegistered(uint proposalId);\r\n    event ProposalUnRegistered(uint proposalId);                                                // Feature_V2    \r\n    event VotingSessionStarted();\r\n    event VotingSessionEnded();\r\n    event Voted (address voter, uint proposalId);\r\n    event VotesTallied();\r\n    event WorkflowStatusChange(WorkflowStatus previousStatus, WorkflowStatus newStatus);\r\n    event SessionRestart(uint sessionId);\r\n    \r\n    mapping(address => Voter) public voters;\r\n    Proposal[] public proposals;\r\n    Session[] public sessions;\r\n    address[] public addressToSave;\r\n    uint16 proposalWinningId;\r\n    uint16 public sessionId;    \r\n    \r\n    WorkflowStatus public currentStatus;\r\n\r\n    constructor(){\r\n        sessionId=0;\r\n        sessions.push(Session(0,0,'NC',address(0),0,0));\r\n        currentStatus = WorkflowStatus.RegisteringVoters;\r\n        proposals.push(Proposal('Blank Vote', 0, address(0), true));\r\n    }\r\n    \r\n    \r\n    /**\r\n     * @dev Force change of status\r\n     * @param newStatus forced\r\n     */\r\n    function adminChangeStatus(uint8 newStatus) external onlyOwner{\r\n        // TODO Clean after testing\r\n        emit WorkflowStatusChange(WorkflowStatus(currentStatus), WorkflowStatus(newStatus));\r\n        currentStatus = WorkflowStatus(newStatus);\r\n    }\r\n    \r\n    \r\n    /**\r\n     * @dev Add a voter\r\n     * @param _addressVoter address of new voter\r\n     * @param _isAbleToPropose is voter abble to propose proposals\r\n     */\r\n    function addVoter(address _addressVoter, bool _isAbleToPropose) external onlyOwner{\r\n        require(currentStatus == WorkflowStatus.RegisteringVoters, \"Not RegisteringVoters Status\");        \r\n        require(!voters[_addressVoter].isRegistered, \"Voter already registred\");\r\n\r\n        voters[_addressVoter] = Voter(true, false, 0, _isAbleToPropose, false);\r\n        addressToSave.push(_addressVoter);\r\n\r\n        emit VoterRegistered(_addressVoter);\r\n    }\r\n    \r\n    /**\r\n     * @dev Remove a voter\r\n     * @param _addressVoter address of new voter\r\n     */\r\n    function removedVoter(address _addressVoter) external onlyOwner{\r\n        require(currentStatus == WorkflowStatus.RegisteringVoters, \"Not RegisteringVoters Status\");        \r\n        require(voters[_addressVoter].isRegistered, \"Voter not registred\");\r\n        \r\n        voters[_addressVoter].isRegistered = false;\r\n\r\n        emit VoterUnRegistered(_addressVoter);\r\n    }\r\n\r\n    /**\r\n     * @dev Change status to ProposalsRegistrationStarted\r\n     */\r\n    function proposalSessionBegin() external onlyOwner{\r\n        require(currentStatus == WorkflowStatus.RegisteringVoters, \"Not RegisteringVoters Status\");\r\n        \r\n        sessions[sessionId].startTimeSession = block.timestamp;\r\n        \r\n        currentStatus = WorkflowStatus.ProposalsRegistrationStarted;\r\n\r\n        emit WorkflowStatusChange(WorkflowStatus.RegisteringVoters, WorkflowStatus.ProposalsRegistrationStarted);\r\n        emit ProposalsRegistrationStarted();        \r\n    }\r\n\r\n    /**\r\n     * @dev Add a proposal\r\n     * @param _content content of proposal\r\n     */\r\n    function addProposal(string memory _content) external {\r\n        require(currentStatus == WorkflowStatus.ProposalsRegistrationStarted, \"Not ProposalsRegistrationStarted Status\");\r\n        require(voters[msg.sender].isRegistered, \"Voter not registred\");\r\n        require(voters[msg.sender].isAbleToPropose, \"Voter not proposer\");\r\n        require(!voters[msg.sender].hasProposed, \"Voter has already proposed\");\r\n\r\n        proposals.push(Proposal(_content, 0, msg.sender, true));\r\n        voters[msg.sender].hasProposed = true;\r\n        \r\n        uint proposalId = proposals.length-1;\r\n\r\n        emit ProposalRegistered(proposalId);\r\n    }    \r\n\r\n    /**\r\n     * @dev Change status to ProposalsRegistrationEnded\r\n     */\r\n    function proposalSessionEnded() external onlyOwner{\r\n        require(currentStatus == WorkflowStatus.ProposalsRegistrationStarted, \"Not ProposalsRegistrationStarted Status\");\r\n        \r\n        currentStatus = WorkflowStatus.ProposalsRegistrationEnded;\r\n        \r\n        emit WorkflowStatusChange(WorkflowStatus.ProposalsRegistrationStarted, WorkflowStatus.ProposalsRegistrationEnded);\r\n        emit ProposalsRegistrationEnded();        \r\n    }\r\n    \r\n    /**\r\n     * @dev Remove a proposal\r\n     * @param _proposalId index of proposal to deactivate\r\n     * @notice Feature_V2\r\n     */\r\n    function removeProposal(uint16 _proposalId) external onlyOwner{\r\n        require(currentStatus == WorkflowStatus.ProposalsRegistrationEnded, \"Not ProposalsRegistrationEnded Status\");\r\n      \r\n        proposals[_proposalId].isActive = false;\r\n\r\n        emit ProposalUnRegistered(_proposalId);\r\n    }        \r\n    \r\n    /**\r\n     * @dev Change status to VotingSessionStarted\r\n     */\r\n    function votingSessionStarted() external onlyOwner{\r\n        require(currentStatus == WorkflowStatus.ProposalsRegistrationEnded, \"Not ProposalsRegistrationEnded Status\");\r\n        \r\n        currentStatus = WorkflowStatus.VotingSessionStarted;\r\n        \r\n        emit WorkflowStatusChange(WorkflowStatus.ProposalsRegistrationEnded, WorkflowStatus.VotingSessionStarted);\r\n        emit VotingSessionStarted();        \r\n    }    \r\n    \r\n    /**\r\n     * @dev Add a vote\r\n     * @param _votedProposalId index of proposal to vote\r\n     */\r\n    function addVote(uint16 _votedProposalId) external {\r\n        require(voters[msg.sender].isRegistered, \"Voter can not vote\");\r\n        require(currentStatus == WorkflowStatus.VotingSessionStarted, \"It is not time to vote!\");\r\n        require(!voters[msg.sender].hasVoted, \"Voter has already vote\");        \r\n        require(proposals[_votedProposalId].isActive, \"Proposition inactive\");      \r\n\r\n        voters[msg.sender].votedProposalId = _votedProposalId;\r\n        voters[msg.sender].hasVoted = true;\r\n        proposals[_votedProposalId].voteCount++;\r\n\r\n        emit Voted (msg.sender, _votedProposalId);\r\n    }\r\n    \r\n     /**\r\n     * @dev Change status to VotingSessionEnded\r\n     */ \r\n    function votingSessionEnded() external onlyOwner{\r\n        require(currentStatus == WorkflowStatus.VotingSessionStarted, \"Not ProposalsRegistrationEnded Status\");\r\n        \r\n        currentStatus = WorkflowStatus.VotingSessionEnded;\r\n        \r\n        emit WorkflowStatusChange(WorkflowStatus.VotingSessionStarted, WorkflowStatus.VotingSessionEnded);\r\n        emit VotingSessionEnded();        \r\n    }       \r\n    \r\n    \r\n    /**\r\n     * @dev Tallied votes\r\n     */\r\n    function votesTallied() external onlyOwner {\r\n        require(currentStatus == WorkflowStatus.VotingSessionEnded, \"Session is still ongoing\");\r\n        \r\n        currentStatus = WorkflowStatus.VotesTallied;\r\n        \r\n        uint16 currentWinnerId;\r\n        uint16 nbVotesWinner;\r\n        uint16 totalVotes;\r\n\r\n        for(uint16 i; i<proposals.length; i++){\r\n            if (proposals[i].voteCount > nbVotesWinner){\r\n                currentWinnerId = i;\r\n                nbVotesWinner = proposals[i].voteCount;\r\n            }\r\n            totalVotes += proposals[i].voteCount;\r\n        }\r\n        proposalWinningId = currentWinnerId;\r\n        sessions[sessionId].endTimeSession = block.timestamp;\r\n        sessions[sessionId].winningProposalName = proposals[currentWinnerId].description;\r\n        sessions[sessionId].proposer = proposals[currentWinnerId].author;\r\n        sessions[sessionId].nbVotes = nbVotesWinner;\r\n        sessions[sessionId].totalVotes = totalVotes;       \r\n\r\n        emit WorkflowStatusChange(WorkflowStatus.VotingSessionEnded, WorkflowStatus.VotesTallied);\r\n        emit VotesTallied();\r\n    }\r\n\r\n    /**\r\n     * @dev Send Winning Proposal\r\n     * @return contentProposal description of proposal\r\n     * @return nbVotes number of votes\r\n     * @return nbVotesTotal number of totals votes\r\n     */\r\n    function getWinningProposal() external view returns(string memory contentProposal, uint16 nbVotes, uint16 nbVotesTotal){\r\n        require(currentStatus == WorkflowStatus.VotesTallied, \"Tallied not finished\"); \r\n        return (\r\n            proposals[proposalWinningId].description,\r\n            proposals[proposalWinningId].voteCount,\r\n            sessions[sessionId].totalVotes\r\n        );\r\n    }\r\n    \r\n     /**\r\n     * @dev Restart session\r\n     * @param deleteVoters delete voters\r\n     * @notice Feature_V2  \r\n     */ \r\n    function restartSession (bool deleteVoters) external {\r\n        require(currentStatus == WorkflowStatus.VotesTallied, \"Tallied not finished\"); \r\n  \r\n        delete(proposals);\r\n        if(deleteVoters){\r\n            for(uint16 i; i<addressToSave.length; i++){\r\n                delete(voters[addressToSave[i]]);\r\n            }\r\n            delete(addressToSave);\r\n        }\r\n        else{\r\n            for(uint16 i; i<addressToSave.length; i++){\r\n                voters[addressToSave[i]].hasVoted=false;\r\n                voters[addressToSave[i]].hasProposed=false;   \r\n            }\r\n        }    \r\n    \r\n        sessionId++;\r\n        sessions.push(Session(0,0,'NC',address(0),0,0));\r\n        currentStatus = WorkflowStatus.RegisteringVoters;\r\n        proposals.push(Proposal('Blank Vote', 0, address(0), true));      \r\n        \r\n        emit SessionRestart(sessionId);\r\n    }\r\n \r\n} ",
  "sourcePath": "C:/Users/danie/Desktop/Solidity/React_Voting/contracts/Voting.sol",
  "compiler": {
    "name": "solc",
    "version": "0.7.4+commit.3f05b770.Emscripten.clang"
  },
  "schemaVersion": "3.3.4",
  "updatedAt": "2021-03-17T14:25:44.193Z",
  "networkType": "ethereum",
  "devdoc": {
    "author": "Hlne BunelEdouard VahanianDaniel Villa Monteiro",
    "details": "Organise Voters registration, proposals registration, votes talling, resetting session",
    "kind": "dev",
    "methods": {
      "addProposal(string)": {
        "details": "Add a proposal",
        "params": {
          "_content": "content of proposal"
        }
      },
      "addVote(uint16)": {
        "details": "Add a vote",
        "params": {
          "_votedProposalId": "index of proposal to vote"
        }
      },
      "addVoter(address,bool)": {
        "details": "Add a voter",
        "params": {
          "_addressVoter": "address of new voter",
          "_isAbleToPropose": "is voter abble to propose proposals"
        }
      },
      "adminChangeStatus(uint8)": {
        "details": "Force change of status",
        "params": {
          "newStatus": "forced"
        }
      },
      "getWinningProposal()": {
        "details": "Send Winning Proposal",
        "returns": {
          "contentProposal": "description of proposal",
          "nbVotes": "number of votes",
          "nbVotesTotal": "number of totals votes"
        }
      },
      "owner()": {
        "details": "Returns the address of the current owner."
      },
      "proposalSessionBegin()": {
        "details": "Change status to ProposalsRegistrationStarted"
      },
      "proposalSessionEnded()": {
        "details": "Change status to ProposalsRegistrationEnded"
      },
      "removeProposal(uint16)": {
        "details": "Remove a proposal",
        "params": {
          "_proposalId": "index of proposal to deactivate"
        }
      },
      "removedVoter(address)": {
        "details": "Remove a voter",
        "params": {
          "_addressVoter": "address of new voter"
        }
      },
      "renounceOwnership()": {
        "details": "Leaves the contract without owner. It will not be possible to call `onlyOwner` functions anymore. Can only be called by the current owner. NOTE: Renouncing ownership will leave the contract without an owner, thereby removing any functionality that is only available to the owner."
      },
      "restartSession(bool)": {
        "details": "Restart session",
        "params": {
          "deleteVoters": "delete voters"
        }
      },
      "transferOwnership(address)": {
        "details": "Transfers ownership of the contract to a new account (`newOwner`). Can only be called by the current owner."
      },
      "votesTallied()": {
        "details": "Tallied votes"
      },
      "votingSessionEnded()": {
        "details": "Change status to VotingSessionEnded"
      },
      "votingSessionStarted()": {
        "details": "Change status to VotingSessionStarted"
      }
    },
    "title": "Voting",
    "version": 1
  },
  "userdoc": {
    "kind": "user",
    "methods": {
      "removeProposal(uint16)": {
        "notice": "Feature_V2"
      },
      "restartSession(bool)": {
        "notice": "Feature_V2  "
      }
    },
    "notice": "We use uint16 size to index propoesals, voters and sessions (limit 65 536)",
    "version": 1
  }
}